{
  "contractName": "IceyPandaz",
  "abi": [
    {
      "inputs": [],
      "stateMutability": "nonpayable",
      "type": "constructor"
    },
    {
      "anonymous": false,
      "inputs": [
        {
          "indexed": true,
          "internalType": "address",
          "name": "owner",
          "type": "address"
        },
        {
          "indexed": true,
          "internalType": "address",
          "name": "approved",
          "type": "address"
        },
        {
          "indexed": true,
          "internalType": "uint256",
          "name": "tokenId",
          "type": "uint256"
        }
      ],
      "name": "Approval",
      "type": "event"
    },
    {
      "anonymous": false,
      "inputs": [
        {
          "indexed": true,
          "internalType": "address",
          "name": "owner",
          "type": "address"
        },
        {
          "indexed": true,
          "internalType": "address",
          "name": "operator",
          "type": "address"
        },
        {
          "indexed": false,
          "internalType": "bool",
          "name": "approved",
          "type": "bool"
        }
      ],
      "name": "ApprovalForAll",
      "type": "event"
    },
    {
      "anonymous": false,
      "inputs": [
        {
          "indexed": true,
          "internalType": "address",
          "name": "previousOwner",
          "type": "address"
        },
        {
          "indexed": true,
          "internalType": "address",
          "name": "newOwner",
          "type": "address"
        }
      ],
      "name": "OwnershipTransferred",
      "type": "event"
    },
    {
      "anonymous": false,
      "inputs": [
        {
          "indexed": false,
          "internalType": "address",
          "name": "account",
          "type": "address"
        }
      ],
      "name": "Paused",
      "type": "event"
    },
    {
      "anonymous": false,
      "inputs": [
        {
          "indexed": true,
          "internalType": "address",
          "name": "from",
          "type": "address"
        },
        {
          "indexed": true,
          "internalType": "address",
          "name": "to",
          "type": "address"
        },
        {
          "indexed": true,
          "internalType": "uint256",
          "name": "tokenId",
          "type": "uint256"
        }
      ],
      "name": "Transfer",
      "type": "event"
    },
    {
      "anonymous": false,
      "inputs": [
        {
          "indexed": false,
          "internalType": "address",
          "name": "account",
          "type": "address"
        }
      ],
      "name": "Unpaused",
      "type": "event"
    },
    {
      "inputs": [],
      "name": "MAX_SUPPLY",
      "outputs": [
        {
          "internalType": "uint256",
          "name": "",
          "type": "uint256"
        }
      ],
      "stateMutability": "view",
      "type": "function"
    },
    {
      "inputs": [
        {
          "internalType": "address",
          "name": "to",
          "type": "address"
        },
        {
          "internalType": "uint256",
          "name": "tokenId",
          "type": "uint256"
        }
      ],
      "name": "approve",
      "outputs": [],
      "stateMutability": "nonpayable",
      "type": "function"
    },
    {
      "inputs": [
        {
          "internalType": "address",
          "name": "owner",
          "type": "address"
        }
      ],
      "name": "balanceOf",
      "outputs": [
        {
          "internalType": "uint256",
          "name": "",
          "type": "uint256"
        }
      ],
      "stateMutability": "view",
      "type": "function"
    },
    {
      "inputs": [],
      "name": "baseURI",
      "outputs": [
        {
          "internalType": "string",
          "name": "",
          "type": "string"
        }
      ],
      "stateMutability": "view",
      "type": "function"
    },
    {
      "inputs": [
        {
          "internalType": "uint256",
          "name": "tokenId",
          "type": "uint256"
        }
      ],
      "name": "getApproved",
      "outputs": [
        {
          "internalType": "address",
          "name": "",
          "type": "address"
        }
      ],
      "stateMutability": "view",
      "type": "function"
    },
    {
      "inputs": [
        {
          "internalType": "address",
          "name": "owner",
          "type": "address"
        },
        {
          "internalType": "address",
          "name": "operator",
          "type": "address"
        }
      ],
      "name": "isApprovedForAll",
      "outputs": [
        {
          "internalType": "bool",
          "name": "",
          "type": "bool"
        }
      ],
      "stateMutability": "view",
      "type": "function"
    },
    {
      "inputs": [],
      "name": "mintRate",
      "outputs": [
        {
          "internalType": "uint256",
          "name": "",
          "type": "uint256"
        }
      ],
      "stateMutability": "view",
      "type": "function"
    },
    {
      "inputs": [],
      "name": "name",
      "outputs": [
        {
          "internalType": "string",
          "name": "",
          "type": "string"
        }
      ],
      "stateMutability": "view",
      "type": "function"
    },
    {
      "inputs": [],
      "name": "owner",
      "outputs": [
        {
          "internalType": "address",
          "name": "",
          "type": "address"
        }
      ],
      "stateMutability": "view",
      "type": "function"
    },
    {
      "inputs": [
        {
          "internalType": "uint256",
          "name": "tokenId",
          "type": "uint256"
        }
      ],
      "name": "ownerOf",
      "outputs": [
        {
          "internalType": "address",
          "name": "",
          "type": "address"
        }
      ],
      "stateMutability": "view",
      "type": "function"
    },
    {
      "inputs": [],
      "name": "paused",
      "outputs": [
        {
          "internalType": "bool",
          "name": "",
          "type": "bool"
        }
      ],
      "stateMutability": "view",
      "type": "function"
    },
    {
      "inputs": [],
      "name": "renounceOwnership",
      "outputs": [],
      "stateMutability": "nonpayable",
      "type": "function"
    },
    {
      "inputs": [
        {
          "internalType": "address",
          "name": "from",
          "type": "address"
        },
        {
          "internalType": "address",
          "name": "to",
          "type": "address"
        },
        {
          "internalType": "uint256",
          "name": "tokenId",
          "type": "uint256"
        }
      ],
      "name": "safeTransferFrom",
      "outputs": [],
      "stateMutability": "nonpayable",
      "type": "function"
    },
    {
      "inputs": [
        {
          "internalType": "address",
          "name": "from",
          "type": "address"
        },
        {
          "internalType": "address",
          "name": "to",
          "type": "address"
        },
        {
          "internalType": "uint256",
          "name": "tokenId",
          "type": "uint256"
        },
        {
          "internalType": "bytes",
          "name": "_data",
          "type": "bytes"
        }
      ],
      "name": "safeTransferFrom",
      "outputs": [],
      "stateMutability": "nonpayable",
      "type": "function"
    },
    {
      "inputs": [
        {
          "internalType": "address",
          "name": "operator",
          "type": "address"
        },
        {
          "internalType": "bool",
          "name": "approved",
          "type": "bool"
        }
      ],
      "name": "setApprovalForAll",
      "outputs": [],
      "stateMutability": "nonpayable",
      "type": "function"
    },
    {
      "inputs": [],
      "name": "symbol",
      "outputs": [
        {
          "internalType": "string",
          "name": "",
          "type": "string"
        }
      ],
      "stateMutability": "view",
      "type": "function"
    },
    {
      "inputs": [
        {
          "internalType": "uint256",
          "name": "index",
          "type": "uint256"
        }
      ],
      "name": "tokenByIndex",
      "outputs": [
        {
          "internalType": "uint256",
          "name": "",
          "type": "uint256"
        }
      ],
      "stateMutability": "view",
      "type": "function"
    },
    {
      "inputs": [
        {
          "internalType": "address",
          "name": "owner",
          "type": "address"
        },
        {
          "internalType": "uint256",
          "name": "index",
          "type": "uint256"
        }
      ],
      "name": "tokenOfOwnerByIndex",
      "outputs": [
        {
          "internalType": "uint256",
          "name": "",
          "type": "uint256"
        }
      ],
      "stateMutability": "view",
      "type": "function"
    },
    {
      "inputs": [
        {
          "internalType": "uint256",
          "name": "tokenId",
          "type": "uint256"
        }
      ],
      "name": "tokenURI",
      "outputs": [
        {
          "internalType": "string",
          "name": "",
          "type": "string"
        }
      ],
      "stateMutability": "view",
      "type": "function"
    },
    {
      "inputs": [],
      "name": "totalSupply",
      "outputs": [
        {
          "internalType": "uint256",
          "name": "",
          "type": "uint256"
        }
      ],
      "stateMutability": "view",
      "type": "function"
    },
    {
      "inputs": [
        {
          "internalType": "address",
          "name": "from",
          "type": "address"
        },
        {
          "internalType": "address",
          "name": "to",
          "type": "address"
        },
        {
          "internalType": "uint256",
          "name": "tokenId",
          "type": "uint256"
        }
      ],
      "name": "transferFrom",
      "outputs": [],
      "stateMutability": "nonpayable",
      "type": "function"
    },
    {
      "inputs": [
        {
          "internalType": "address",
          "name": "newOwner",
          "type": "address"
        }
      ],
      "name": "transferOwnership",
      "outputs": [],
      "stateMutability": "nonpayable",
      "type": "function"
    },
    {
      "inputs": [
        {
          "internalType": "uint256",
          "name": "",
          "type": "uint256"
        }
      ],
      "name": "whitelistedAddresses",
      "outputs": [
        {
          "internalType": "address",
          "name": "",
          "type": "address"
        }
      ],
      "stateMutability": "view",
      "type": "function"
    },
    {
      "inputs": [
        {
          "internalType": "string",
          "name": "_newBaseURI",
          "type": "string"
        }
      ],
      "name": "setBaseURI",
      "outputs": [],
      "stateMutability": "nonpayable",
      "type": "function"
    },
    {
      "inputs": [],
      "name": "pause",
      "outputs": [],
      "stateMutability": "nonpayable",
      "type": "function"
    },
    {
      "inputs": [],
      "name": "unpause",
      "outputs": [],
      "stateMutability": "nonpayable",
      "type": "function"
    },
    {
      "inputs": [
        {
          "internalType": "address",
          "name": "to",
          "type": "address"
        }
      ],
      "name": "safeMint",
      "outputs": [],
      "stateMutability": "payable",
      "type": "function"
    },
    {
      "inputs": [
        {
          "internalType": "address",
          "name": "to",
          "type": "address"
        }
      ],
      "name": "safeMintWhiteList",
      "outputs": [],
      "stateMutability": "nonpayable",
      "type": "function"
    },
    {
      "inputs": [
        {
          "internalType": "address",
          "name": "_user",
          "type": "address"
        }
      ],
      "name": "isWhitelisted",
      "outputs": [
        {
          "internalType": "bool",
          "name": "",
          "type": "bool"
        }
      ],
      "stateMutability": "view",
      "type": "function"
    },
    {
      "inputs": [
        {
          "internalType": "address[]",
          "name": "_users",
          "type": "address[]"
        }
      ],
      "name": "whitelistUsers",
      "outputs": [],
      "stateMutability": "nonpayable",
      "type": "function"
    },
    {
      "inputs": [
        {
          "internalType": "bytes4",
          "name": "interfaceId",
          "type": "bytes4"
        }
      ],
      "name": "supportsInterface",
      "outputs": [
        {
          "internalType": "bool",
          "name": "",
          "type": "bool"
        }
      ],
      "stateMutability": "view",
      "type": "function"
    },
    {
      "inputs": [],
      "name": "withdraw",
      "outputs": [],
      "stateMutability": "nonpayable",
      "type": "function"
    }
  ],
  "bytecode": "0x6080604052668e1bc9bf040000600e55610352600f553480156200002257600080fd5b506040518060400160405280600a81526020017f4963657950616e64617a000000000000000000000000000000000000000000008152506040518060400160405280600381526020017f49435000000000000000000000000000000000000000000000000000000000008152508160009080519060200190620000a7929190620001d2565b508060019080519060200190620000c0929190620001d2565b5050506000600a60006101000a81548160ff021916908315150217905550620000fe620000f26200010460201b60201c565b6200010c60201b60201c565b620002e7565b600033905090565b6000600a60019054906101000a900473ffffffffffffffffffffffffffffffffffffffff16905081600a60016101000a81548173ffffffffffffffffffffffffffffffffffffffff021916908373ffffffffffffffffffffffffffffffffffffffff1602179055508173ffffffffffffffffffffffffffffffffffffffff168173ffffffffffffffffffffffffffffffffffffffff167f8be0079c531659141344cd1fd0a4f28419497f9722a3daafe3b4186f6b6457e060405160405180910390a35050565b828054620001e090620002b1565b90600052602060002090601f01602090048101928262000204576000855562000250565b82601f106200021f57805160ff191683800117855562000250565b8280016001018555821562000250579182015b828111156200024f57825182559160200191906001019062000232565b5b5090506200025f919062000263565b5090565b5b808211156200027e57600081600090555060010162000264565b5090565b7f4e487b7100000000000000000000000000000000000000000000000000000000600052602260045260246000fd5b60006002820490506001821680620002ca57607f821691505b60208210811415620002e157620002e062000282565b5b50919050565b6143a180620002f76000396000f3fe6080604052600436106101e35760003560e01c80635c975abb11610102578063a22cb46511610095578063ca0dcf1611610064578063ca0dcf16146106d1578063e985e9c5146106fc578063edec5f2714610739578063f2fde38b14610762576101e3565b8063a22cb46514610605578063b88d4fde1461062e578063ba4e5c4914610657578063c87b56dd14610694576101e3565b8063715018a6116100d1578063715018a6146105815780638456cb59146105985780638da5cb5b146105af57806395d89b41146105da576101e3565b80635c975abb146104b15780636352211e146104dc5780636c0360eb1461051957806370a0823114610544576101e3565b806332cb6b0c1161017a57806340d097c31161014957806340d097c31461040657806342842e0e146104225780634f6ccce71461044b57806355f804b314610488576101e3565b806332cb6b0c146103705780633af32abf1461039b5780633ccfd60b146103d85780633f4ba83a146103ef576101e3565b806309727337116101b657806309727337146102b657806318160ddd146102df57806323b872dd1461030a5780632f745c5914610333576101e3565b806301ffc9a7146101e857806306fdde0314610225578063081812fc14610250578063095ea7b31461028d575b600080fd5b3480156101f457600080fd5b5061020f600480360381019061020a9190612d20565b61078b565b60405161021c9190612d68565b60405180910390f35b34801561023157600080fd5b5061023a61079d565b6040516102479190612e1c565b60405180910390f35b34801561025c57600080fd5b5061027760048036038101906102729190612e74565b61082f565b6040516102849190612ee2565b60405180910390f35b34801561029957600080fd5b506102b460048036038101906102af9190612f29565b6108b4565b005b3480156102c257600080fd5b506102dd60048036038101906102d89190612f69565b6109cc565b005b3480156102eb57600080fd5b506102f4610a3a565b6040516103019190612fa5565b60405180910390f35b34801561031657600080fd5b50610331600480360381019061032c9190612fc0565b610a47565b005b34801561033f57600080fd5b5061035a60048036038101906103559190612f29565b610aa7565b6040516103679190612fa5565b60405180910390f35b34801561037c57600080fd5b50610385610b4c565b6040516103929190612fa5565b60405180910390f35b3480156103a757600080fd5b506103c260048036038101906103bd9190612f69565b610b52565b6040516103cf9190612d68565b60405180910390f35b3480156103e457600080fd5b506103ed610c01565b005b3480156103fb57600080fd5b50610404610ccd565b005b610420600480360381019061041b9190612f69565b610d53565b005b34801561042e57600080fd5b5061044960048036038101906104449190612fc0565b610e4f565b005b34801561045757600080fd5b50610472600480360381019061046d9190612e74565b610e6f565b60405161047f9190612fa5565b60405180910390f35b34801561049457600080fd5b506104af60048036038101906104aa9190613148565b610ee0565b005b3480156104bd57600080fd5b506104c6610f76565b6040516104d39190612d68565b60405180910390f35b3480156104e857600080fd5b5061050360048036038101906104fe9190612e74565b610f8d565b6040516105109190612ee2565b60405180910390f35b34801561052557600080fd5b5061052e61103f565b60405161053b9190612e1c565b60405180910390f35b34801561055057600080fd5b5061056b60048036038101906105669190612f69565b6110cd565b6040516105789190612fa5565b60405180910390f35b34801561058d57600080fd5b50610596611185565b005b3480156105a457600080fd5b506105ad61120d565b005b3480156105bb57600080fd5b506105c4611293565b6040516105d19190612ee2565b60405180910390f35b3480156105e657600080fd5b506105ef6112bd565b6040516105fc9190612e1c565b60405180910390f35b34801561061157600080fd5b5061062c600480360381019061062791906131bd565b61134f565b005b34801561063a57600080fd5b506106556004803603810190610650919061329e565b611365565b005b34801561066357600080fd5b5061067e60048036038101906106799190612e74565b6113c7565b60405161068b9190612ee2565b60405180910390f35b3480156106a057600080fd5b506106bb60048036038101906106b69190612e74565b611406565b6040516106c89190612e1c565b60405180910390f35b3480156106dd57600080fd5b506106e66114ad565b6040516106f39190612fa5565b60405180910390f35b34801561070857600080fd5b50610723600480360381019061071e9190613321565b6114b3565b6040516107309190612d68565b60405180910390f35b34801561074557600080fd5b50610760600480360381019061075b91906133c1565b611547565b005b34801561076e57600080fd5b5061078960048036038101906107849190612f69565b6115e7565b005b6000610796826116df565b9050919050565b6060600080546107ac9061343d565b80601f01602080910402602001604051908101604052809291908181526020018280546107d89061343d565b80156108255780601f106107fa57610100808354040283529160200191610825565b820191906000526020600020905b81548152906001019060200180831161080857829003601f168201915b5050505050905090565b600061083a82611759565b610879576040517f08c379a0000000000000000000000000000000000000000000000000000000008152600401610870906134e1565b60405180910390fd5b6004600083815260200190815260200160002060009054906101000a900473ffffffffffffffffffffffffffffffffffffffff169050919050565b60006108bf82610f8d565b90508073ffffffffffffffffffffffffffffffffffffffff168373ffffffffffffffffffffffffffffffffffffffff161415610930576040517f08c379a000000000000000000000000000000000000000000000000000000000815260040161092790613573565b60405180910390fd5b8073ffffffffffffffffffffffffffffffffffffffff1661094f6117c5565b73ffffffffffffffffffffffffffffffffffffffff16148061097e575061097d816109786117c5565b6114b3565b5b6109bd576040517f08c379a00000000000000000000000000000000000000000000000000000000081526004016109b490613605565b60405180910390fd5b6109c783836117cd565b505050565b6109d533610b52565b610a14576040517f08c379a0000000000000000000000000000000000000000000000000000000008152600401610a0b90613671565b60405180910390fd5b610a1e600d611886565b6000610a2a600d61189c565b9050610a3682826118aa565b5050565b6000600880549050905090565b610a58610a526117c5565b826118c8565b610a97576040517f08c379a0000000000000000000000000000000000000000000000000000000008152600401610a8e90613703565b60405180910390fd5b610aa28383836119a6565b505050565b6000610ab2836110cd565b8210610af3576040517f08c379a0000000000000000000000000000000000000000000000000000000008152600401610aea90613795565b60405180910390fd5b600660008473ffffffffffffffffffffffffffffffffffffffff1673ffffffffffffffffffffffffffffffffffffffff168152602001908152602001600020600083815260200190815260200160002054905092915050565b600f5481565b600080600090505b600c80549050811015610bf6578273ffffffffffffffffffffffffffffffffffffffff16600c8281548110610b9257610b916137b5565b5b9060005260206000200160009054906101000a900473ffffffffffffffffffffffffffffffffffffffff1673ffffffffffffffffffffffffffffffffffffffff161415610be3576001915050610bfc565b8080610bee90613813565b915050610b5a565b50600090505b919050565b610c096117c5565b73ffffffffffffffffffffffffffffffffffffffff16610c27611293565b73ffffffffffffffffffffffffffffffffffffffff1614610c7d576040517f08c379a0000000000000000000000000000000000000000000000000000000008152600401610c74906138a8565b60405180910390fd5b610c85611293565b73ffffffffffffffffffffffffffffffffffffffff166108fc479081150290604051600060405180830381858888f19350505050158015610cca573d6000803e3d6000fd5b50565b610cd56117c5565b73ffffffffffffffffffffffffffffffffffffffff16610cf3611293565b73ffffffffffffffffffffffffffffffffffffffff1614610d49576040517f08c379a0000000000000000000000000000000000000000000000000000000008152600401610d40906138a8565b60405180910390fd5b610d51611c02565b565b600f54610d5e610a3a565b10610d9e576040517f08c379a0000000000000000000000000000000000000000000000000000000008152600401610d9590613914565b60405180910390fd5b61015f600f5410610de4576040517f08c379a0000000000000000000000000000000000000000000000000000000008152600401610ddb90613914565b60405180910390fd5b600e54341015610e29576040517f08c379a0000000000000000000000000000000000000000000000000000000008152600401610e2090613980565b60405180910390fd5b610e33600d611886565b6000610e3f600d61189c565b9050610e4b82826118aa565b5050565b610e6a83838360405180602001604052806000815250611365565b505050565b6000610e79610a3a565b8210610eba576040517f08c379a0000000000000000000000000000000000000000000000000000000008152600401610eb190613a12565b60405180910390fd5b60088281548110610ece57610ecd6137b5565b5b90600052602060002001549050919050565b610ee86117c5565b73ffffffffffffffffffffffffffffffffffffffff16610f06611293565b73ffffffffffffffffffffffffffffffffffffffff1614610f5c576040517f08c379a0000000000000000000000000000000000000000000000000000000008152600401610f53906138a8565b60405180910390fd5b80600b9080519060200190610f72929190612b50565b5050565b6000600a60009054906101000a900460ff16905090565b6000806002600084815260200190815260200160002060009054906101000a900473ffffffffffffffffffffffffffffffffffffffff169050600073ffffffffffffffffffffffffffffffffffffffff168173ffffffffffffffffffffffffffffffffffffffff161415611036576040517f08c379a000000000000000000000000000000000000000000000000000000000815260040161102d90613aa4565b60405180910390fd5b80915050919050565b600b805461104c9061343d565b80601f01602080910402602001604051908101604052809291908181526020018280546110789061343d565b80156110c55780601f1061109a576101008083540402835291602001916110c5565b820191906000526020600020905b8154815290600101906020018083116110a857829003601f168201915b505050505081565b60008073ffffffffffffffffffffffffffffffffffffffff168273ffffffffffffffffffffffffffffffffffffffff16141561113e576040517f08c379a000000000000000000000000000000000000000000000000000000000815260040161113590613b36565b60405180910390fd5b600360008373ffffffffffffffffffffffffffffffffffffffff1673ffffffffffffffffffffffffffffffffffffffff168152602001908152602001600020549050919050565b61118d6117c5565b73ffffffffffffffffffffffffffffffffffffffff166111ab611293565b73ffffffffffffffffffffffffffffffffffffffff1614611201576040517f08c379a00000000000000000000000000000000000000000000000000000000081526004016111f8906138a8565b60405180910390fd5b61120b6000611ca4565b565b6112156117c5565b73ffffffffffffffffffffffffffffffffffffffff16611233611293565b73ffffffffffffffffffffffffffffffffffffffff1614611289576040517f08c379a0000000000000000000000000000000000000000000000000000000008152600401611280906138a8565b60405180910390fd5b611291611d6a565b565b6000600a60019054906101000a900473ffffffffffffffffffffffffffffffffffffffff16905090565b6060600180546112cc9061343d565b80601f01602080910402602001604051908101604052809291908181526020018280546112f89061343d565b80156113455780601f1061131a57610100808354040283529160200191611345565b820191906000526020600020905b81548152906001019060200180831161132857829003601f168201915b5050505050905090565b61136161135a6117c5565b8383611e0d565b5050565b6113766113706117c5565b836118c8565b6113b5576040517f08c379a00000000000000000000000000000000000000000000000000000000081526004016113ac90613703565b60405180910390fd5b6113c184848484611f7a565b50505050565b600c81815481106113d757600080fd5b906000526020600020016000915054906101000a900473ffffffffffffffffffffffffffffffffffffffff1681565b606061141182611759565b611450576040517f08c379a000000000000000000000000000000000000000000000000000000000815260040161144790613bc8565b60405180910390fd5b600061145a611fd6565b9050600081511161147a57604051806020016040528060008152506114a5565b8061148484612068565b604051602001611495929190613c24565b6040516020818303038152906040525b915050919050565b600e5481565b6000600560008473ffffffffffffffffffffffffffffffffffffffff1673ffffffffffffffffffffffffffffffffffffffff16815260200190815260200160002060008373ffffffffffffffffffffffffffffffffffffffff1673ffffffffffffffffffffffffffffffffffffffff16815260200190815260200160002060009054906101000a900460ff16905092915050565b61154f6117c5565b73ffffffffffffffffffffffffffffffffffffffff1661156d611293565b73ffffffffffffffffffffffffffffffffffffffff16146115c3576040517f08c379a00000000000000000000000000000000000000000000000000000000081526004016115ba906138a8565b60405180910390fd5b600c60006115d19190612bd6565b8181600c91906115e2929190612bf7565b505050565b6115ef6117c5565b73ffffffffffffffffffffffffffffffffffffffff1661160d611293565b73ffffffffffffffffffffffffffffffffffffffff1614611663576040517f08c379a000000000000000000000000000000000000000000000000000000000815260040161165a906138a8565b60405180910390fd5b600073ffffffffffffffffffffffffffffffffffffffff168173ffffffffffffffffffffffffffffffffffffffff1614156116d3576040517f08c379a00000000000000000000000000000000000000000000000000000000081526004016116ca90613cba565b60405180910390fd5b6116dc81611ca4565b50565b60007f780e9d63000000000000000000000000000000000000000000000000000000007bffffffffffffffffffffffffffffffffffffffffffffffffffffffff1916827bffffffffffffffffffffffffffffffffffffffffffffffffffffffff191614806117525750611751826121c9565b5b9050919050565b60008073ffffffffffffffffffffffffffffffffffffffff166002600084815260200190815260200160002060009054906101000a900473ffffffffffffffffffffffffffffffffffffffff1673ffffffffffffffffffffffffffffffffffffffff1614159050919050565b600033905090565b816004600083815260200190815260200160002060006101000a81548173ffffffffffffffffffffffffffffffffffffffff021916908373ffffffffffffffffffffffffffffffffffffffff160217905550808273ffffffffffffffffffffffffffffffffffffffff1661184083610f8d565b73ffffffffffffffffffffffffffffffffffffffff167f8c5be1e5ebec7d5bd14f71427d1e84f3dd0314c0f7b2291e5b200ac8c7c3b92560405160405180910390a45050565b6001816000016000828254019250508190555050565b600081600001549050919050565b6118c48282604051806020016040528060008152506122ab565b5050565b60006118d382611759565b611912576040517f08c379a000000000000000000000000000000000000000000000000000000000815260040161190990613d4c565b60405180910390fd5b600061191d83610f8d565b90508073ffffffffffffffffffffffffffffffffffffffff168473ffffffffffffffffffffffffffffffffffffffff16148061198c57508373ffffffffffffffffffffffffffffffffffffffff166119748461082f565b73ffffffffffffffffffffffffffffffffffffffff16145b8061199d575061199c81856114b3565b5b91505092915050565b8273ffffffffffffffffffffffffffffffffffffffff166119c682610f8d565b73ffffffffffffffffffffffffffffffffffffffff1614611a1c576040517f08c379a0000000000000000000000000000000000000000000000000000000008152600401611a1390613dde565b60405180910390fd5b600073ffffffffffffffffffffffffffffffffffffffff168273ffffffffffffffffffffffffffffffffffffffff161415611a8c576040517f08c379a0000000000000000000000000000000000000000000000000000000008152600401611a8390613e70565b60405180910390fd5b611a97838383612306565b611aa26000826117cd565b6001600360008573ffffffffffffffffffffffffffffffffffffffff1673ffffffffffffffffffffffffffffffffffffffff1681526020019081526020016000206000828254611af29190613e90565b925050819055506001600360008473ffffffffffffffffffffffffffffffffffffffff1673ffffffffffffffffffffffffffffffffffffffff1681526020019081526020016000206000828254611b499190613ec4565b92505081905550816002600083815260200190815260200160002060006101000a81548173ffffffffffffffffffffffffffffffffffffffff021916908373ffffffffffffffffffffffffffffffffffffffff160217905550808273ffffffffffffffffffffffffffffffffffffffff168473ffffffffffffffffffffffffffffffffffffffff167fddf252ad1be2c89b69c2b068fc378daa952ba7f163c4a11628f55a4df523b3ef60405160405180910390a4505050565b611c0a610f76565b611c49576040517f08c379a0000000000000000000000000000000000000000000000000000000008152600401611c4090613f66565b60405180910390fd5b6000600a60006101000a81548160ff0219169083151502179055507f5db9ee0a495bf2e6ff9c91a7834c1ba4fdd244a5e8aa4e537bd38aeae4b073aa611c8d6117c5565b604051611c9a9190612ee2565b60405180910390a1565b6000600a60019054906101000a900473ffffffffffffffffffffffffffffffffffffffff16905081600a60016101000a81548173ffffffffffffffffffffffffffffffffffffffff021916908373ffffffffffffffffffffffffffffffffffffffff1602179055508173ffffffffffffffffffffffffffffffffffffffff168173ffffffffffffffffffffffffffffffffffffffff167f8be0079c531659141344cd1fd0a4f28419497f9722a3daafe3b4186f6b6457e060405160405180910390a35050565b611d72610f76565b15611db2576040517f08c379a0000000000000000000000000000000000000000000000000000000008152600401611da990613fd2565b60405180910390fd5b6001600a60006101000a81548160ff0219169083151502179055507f62e78cea01bee320cd4e420270b5ea74000d11b0c9f74754ebdbfc544b05a258611df66117c5565b604051611e039190612ee2565b60405180910390a1565b8173ffffffffffffffffffffffffffffffffffffffff168373ffffffffffffffffffffffffffffffffffffffff161415611e7c576040517f08c379a0000000000000000000000000000000000000000000000000000000008152600401611e739061403e565b60405180910390fd5b80600560008573ffffffffffffffffffffffffffffffffffffffff1673ffffffffffffffffffffffffffffffffffffffff16815260200190815260200160002060008473ffffffffffffffffffffffffffffffffffffffff1673ffffffffffffffffffffffffffffffffffffffff16815260200190815260200160002060006101000a81548160ff0219169083151502179055508173ffffffffffffffffffffffffffffffffffffffff168373ffffffffffffffffffffffffffffffffffffffff167f17307eab39ab6107e8899845ad3d59bd9653f200f220920489ca2b5937696c3183604051611f6d9190612d68565b60405180910390a3505050565b611f858484846119a6565b611f918484848461235e565b611fd0576040517f08c379a0000000000000000000000000000000000000000000000000000000008152600401611fc7906140d0565b60405180910390fd5b50505050565b6060600b8054611fe59061343d565b80601f01602080910402602001604051908101604052809291908181526020018280546120119061343d565b801561205e5780601f106120335761010080835404028352916020019161205e565b820191906000526020600020905b81548152906001019060200180831161204157829003601f168201915b5050505050905090565b606060008214156120b0576040518060400160405280600181526020017f300000000000000000000000000000000000000000000000000000000000000081525090506121c4565b600082905060005b600082146120e25780806120cb90613813565b915050600a826120db919061411f565b91506120b8565b60008167ffffffffffffffff8111156120fe576120fd61301d565b5b6040519080825280601f01601f1916602001820160405280156121305781602001600182028036833780820191505090505b5090505b600085146121bd576001826121499190613e90565b9150600a856121589190614150565b60306121649190613ec4565b60f81b81838151811061217a576121796137b5565b5b60200101907effffffffffffffffffffffffffffffffffffffffffffffffffffffffffffff1916908160001a905350600a856121b6919061411f565b9450612134565b8093505050505b919050565b60007f80ac58cd000000000000000000000000000000000000000000000000000000007bffffffffffffffffffffffffffffffffffffffffffffffffffffffff1916827bffffffffffffffffffffffffffffffffffffffffffffffffffffffff1916148061229457507f5b5e139f000000000000000000000000000000000000000000000000000000007bffffffffffffffffffffffffffffffffffffffffffffffffffffffff1916827bffffffffffffffffffffffffffffffffffffffffffffffffffffffff1916145b806122a457506122a3826124e6565b5b9050919050565b6122b58383612550565b6122c2600084848461235e565b612301576040517f08c379a00000000000000000000000000000000000000000000000000000000081526004016122f8906140d0565b60405180910390fd5b505050565b61230e610f76565b1561234e576040517f08c379a000000000000000000000000000000000000000000000000000000000815260040161234590613fd2565b60405180910390fd5b61235983838361271e565b505050565b600061237f8473ffffffffffffffffffffffffffffffffffffffff16612832565b156124d9578373ffffffffffffffffffffffffffffffffffffffff1663150b7a026123a86117c5565b8786866040518563ffffffff1660e01b81526004016123ca94939291906141d6565b6020604051808303816000875af192505050801561240657506040513d601f19601f820116820180604052508101906124039190614237565b60015b612489573d8060008114612436576040519150601f19603f3d011682016040523d82523d6000602084013e61243b565b606091505b50600081511415612481576040517f08c379a0000000000000000000000000000000000000000000000000000000008152600401612478906140d0565b60405180910390fd5b805181602001fd5b63150b7a0260e01b7bffffffffffffffffffffffffffffffffffffffffffffffffffffffff1916817bffffffffffffffffffffffffffffffffffffffffffffffffffffffff1916149150506124de565b600190505b949350505050565b60007f01ffc9a7000000000000000000000000000000000000000000000000000000007bffffffffffffffffffffffffffffffffffffffffffffffffffffffff1916827bffffffffffffffffffffffffffffffffffffffffffffffffffffffff1916149050919050565b600073ffffffffffffffffffffffffffffffffffffffff168273ffffffffffffffffffffffffffffffffffffffff1614156125c0576040517f08c379a00000000000000000000000000000000000000000000000000000000081526004016125b7906142b0565b60405180910390fd5b6125c981611759565b15612609576040517f08c379a00000000000000000000000000000000000000000000000000000000081526004016126009061431c565b60405180910390fd5b61261560008383612306565b6001600360008473ffffffffffffffffffffffffffffffffffffffff1673ffffffffffffffffffffffffffffffffffffffff16815260200190815260200160002060008282546126659190613ec4565b92505081905550816002600083815260200190815260200160002060006101000a81548173ffffffffffffffffffffffffffffffffffffffff021916908373ffffffffffffffffffffffffffffffffffffffff160217905550808273ffffffffffffffffffffffffffffffffffffffff16600073ffffffffffffffffffffffffffffffffffffffff167fddf252ad1be2c89b69c2b068fc378daa952ba7f163c4a11628f55a4df523b3ef60405160405180910390a45050565b612729838383612845565b600073ffffffffffffffffffffffffffffffffffffffff168373ffffffffffffffffffffffffffffffffffffffff16141561276c576127678161284a565b6127ab565b8173ffffffffffffffffffffffffffffffffffffffff168373ffffffffffffffffffffffffffffffffffffffff16146127aa576127a98382612893565b5b5b600073ffffffffffffffffffffffffffffffffffffffff168273ffffffffffffffffffffffffffffffffffffffff1614156127ee576127e981612a00565b61282d565b8273ffffffffffffffffffffffffffffffffffffffff168273ffffffffffffffffffffffffffffffffffffffff161461282c5761282b8282612ad1565b5b5b505050565b600080823b905060008111915050919050565b505050565b6008805490506009600083815260200190815260200160002081905550600881908060018154018082558091505060019003906000526020600020016000909190919091505550565b600060016128a0846110cd565b6128aa9190613e90565b905060006007600084815260200190815260200160002054905081811461298f576000600660008673ffffffffffffffffffffffffffffffffffffffff1673ffffffffffffffffffffffffffffffffffffffff168152602001908152602001600020600084815260200190815260200160002054905080600660008773ffffffffffffffffffffffffffffffffffffffff1673ffffffffffffffffffffffffffffffffffffffff168152602001908152602001600020600084815260200190815260200160002081905550816007600083815260200190815260200160002081905550505b6007600084815260200190815260200160002060009055600660008573ffffffffffffffffffffffffffffffffffffffff1673ffffffffffffffffffffffffffffffffffffffff16815260200190815260200160002060008381526020019081526020016000206000905550505050565b60006001600880549050612a149190613e90565b9050600060096000848152602001908152602001600020549050600060088381548110612a4457612a436137b5565b5b906000526020600020015490508060088381548110612a6657612a656137b5565b5b906000526020600020018190555081600960008381526020019081526020016000208190555060096000858152602001908152602001600020600090556008805480612ab557612ab461433c565b5b6001900381819060005260206000200160009055905550505050565b6000612adc836110cd565b905081600660008573ffffffffffffffffffffffffffffffffffffffff1673ffffffffffffffffffffffffffffffffffffffff168152602001908152602001600020600083815260200190815260200160002081905550806007600084815260200190815260200160002081905550505050565b828054612b5c9061343d565b90600052602060002090601f016020900481019282612b7e5760008555612bc5565b82601f10612b9757805160ff1916838001178555612bc5565b82800160010185558215612bc5579182015b82811115612bc4578251825591602001919060010190612ba9565b5b509050612bd29190612c97565b5090565b5080546000825590600052602060002090810190612bf49190612c97565b50565b828054828255906000526020600020908101928215612c86579160200282015b82811115612c8557823573ffffffffffffffffffffffffffffffffffffffff168260006101000a81548173ffffffffffffffffffffffffffffffffffffffff021916908373ffffffffffffffffffffffffffffffffffffffff16021790555091602001919060010190612c17565b5b509050612c939190612c97565b5090565b5b80821115612cb0576000816000905550600101612c98565b5090565b6000604051905090565b600080fd5b600080fd5b60007fffffffff0000000000000000000000000000000000000000000000000000000082169050919050565b612cfd81612cc8565b8114612d0857600080fd5b50565b600081359050612d1a81612cf4565b92915050565b600060208284031215612d3657612d35612cbe565b5b6000612d4484828501612d0b565b91505092915050565b60008115159050919050565b612d6281612d4d565b82525050565b6000602082019050612d7d6000830184612d59565b92915050565b600081519050919050565b600082825260208201905092915050565b60005b83811015612dbd578082015181840152602081019050612da2565b83811115612dcc576000848401525b50505050565b6000601f19601f8301169050919050565b6000612dee82612d83565b612df88185612d8e565b9350612e08818560208601612d9f565b612e1181612dd2565b840191505092915050565b60006020820190508181036000830152612e368184612de3565b905092915050565b6000819050919050565b612e5181612e3e565b8114612e5c57600080fd5b50565b600081359050612e6e81612e48565b92915050565b600060208284031215612e8a57612e89612cbe565b5b6000612e9884828501612e5f565b91505092915050565b600073ffffffffffffffffffffffffffffffffffffffff82169050919050565b6000612ecc82612ea1565b9050919050565b612edc81612ec1565b82525050565b6000602082019050612ef76000830184612ed3565b92915050565b612f0681612ec1565b8114612f1157600080fd5b50565b600081359050612f2381612efd565b92915050565b60008060408385031215612f4057612f3f612cbe565b5b6000612f4e85828601612f14565b9250506020612f5f85828601612e5f565b9150509250929050565b600060208284031215612f7f57612f7e612cbe565b5b6000612f8d84828501612f14565b91505092915050565b612f9f81612e3e565b82525050565b6000602082019050612fba6000830184612f96565b92915050565b600080600060608486031215612fd957612fd8612cbe565b5b6000612fe786828701612f14565b9350506020612ff886828701612f14565b925050604061300986828701612e5f565b9150509250925092565b600080fd5b600080fd5b7f4e487b7100000000000000000000000000000000000000000000000000000000600052604160045260246000fd5b61305582612dd2565b810181811067ffffffffffffffff821117156130745761307361301d565b5b80604052505050565b6000613087612cb4565b9050613093828261304c565b919050565b600067ffffffffffffffff8211156130b3576130b261301d565b5b6130bc82612dd2565b9050602081019050919050565b82818337600083830152505050565b60006130eb6130e684613098565b61307d565b90508281526020810184848401111561310757613106613018565b5b6131128482856130c9565b509392505050565b600082601f83011261312f5761312e613013565b5b813561313f8482602086016130d8565b91505092915050565b60006020828403121561315e5761315d612cbe565b5b600082013567ffffffffffffffff81111561317c5761317b612cc3565b5b6131888482850161311a565b91505092915050565b61319a81612d4d565b81146131a557600080fd5b50565b6000813590506131b781613191565b92915050565b600080604083850312156131d4576131d3612cbe565b5b60006131e285828601612f14565b92505060206131f3858286016131a8565b9150509250929050565b600067ffffffffffffffff8211156132185761321761301d565b5b61322182612dd2565b9050602081019050919050565b600061324161323c846131fd565b61307d565b90508281526020810184848401111561325d5761325c613018565b5b6132688482856130c9565b509392505050565b600082601f83011261328557613284613013565b5b813561329584826020860161322e565b91505092915050565b600080600080608085870312156132b8576132b7612cbe565b5b60006132c687828801612f14565b94505060206132d787828801612f14565b93505060406132e887828801612e5f565b925050606085013567ffffffffffffffff81111561330957613308612cc3565b5b61331587828801613270565b91505092959194509250565b6000806040838503121561333857613337612cbe565b5b600061334685828601612f14565b925050602061335785828601612f14565b9150509250929050565b600080fd5b600080fd5b60008083601f84011261338157613380613013565b5b8235905067ffffffffffffffff81111561339e5761339d613361565b5b6020830191508360208202830111156133ba576133b9613366565b5b9250929050565b600080602083850312156133d8576133d7612cbe565b5b600083013567ffffffffffffffff8111156133f6576133f5612cc3565b5b6134028582860161336b565b92509250509250929050565b7f4e487b7100000000000000000000000000000000000000000000000000000000600052602260045260246000fd5b6000600282049050600182168061345557607f821691505b602082108114156134695761346861340e565b5b50919050565b7f4552433732313a20617070726f76656420717565727920666f72206e6f6e657860008201527f697374656e7420746f6b656e0000000000000000000000000000000000000000602082015250565b60006134cb602c83612d8e565b91506134d68261346f565b604082019050919050565b600060208201905081810360008301526134fa816134be565b9050919050565b7f4552433732313a20617070726f76616c20746f2063757272656e74206f776e6560008201527f7200000000000000000000000000000000000000000000000000000000000000602082015250565b600061355d602183612d8e565b915061356882613501565b604082019050919050565b6000602082019050818103600083015261358c81613550565b9050919050565b7f4552433732313a20617070726f76652063616c6c6572206973206e6f74206f7760008201527f6e6572206e6f7220617070726f76656420666f7220616c6c0000000000000000602082015250565b60006135ef603883612d8e565b91506135fa82613593565b604082019050919050565b6000602082019050818103600083015261361e816135e2565b9050919050565b7f75736572206973206e6f742077686974656c6973746564000000000000000000600082015250565b600061365b601783612d8e565b915061366682613625565b602082019050919050565b6000602082019050818103600083015261368a8161364e565b9050919050565b7f4552433732313a207472616e736665722063616c6c6572206973206e6f74206f60008201527f776e6572206e6f7220617070726f766564000000000000000000000000000000602082015250565b60006136ed603183612d8e565b91506136f882613691565b604082019050919050565b6000602082019050818103600083015261371c816136e0565b9050919050565b7f455243373231456e756d657261626c653a206f776e657220696e646578206f7560008201527f74206f6620626f756e6473000000000000000000000000000000000000000000602082015250565b600061377f602b83612d8e565b915061378a82613723565b604082019050919050565b600060208201905081810360008301526137ae81613772565b9050919050565b7f4e487b7100000000000000000000000000000000000000000000000000000000600052603260045260246000fd5b7f4e487b7100000000000000000000000000000000000000000000000000000000600052601160045260246000fd5b600061381e82612e3e565b91507fffffffffffffffffffffffffffffffffffffffffffffffffffffffffffffffff821415613851576138506137e4565b5b600182019050919050565b7f4f776e61626c653a2063616c6c6572206973206e6f7420746865206f776e6572600082015250565b6000613892602083612d8e565b915061389d8261385c565b602082019050919050565b600060208201905081810360008301526138c181613885565b9050919050565b7f616c6c20746f6b656e732068617665206265656e206d696e7465640000000000600082015250565b60006138fe601b83612d8e565b9150613909826138c8565b602082019050919050565b6000602082019050818103600083015261392d816138f1565b9050919050565b7f6e6f7420656e6f7567682065746820746f206d696e7400000000000000000000600082015250565b600061396a601683612d8e565b915061397582613934565b602082019050919050565b600060208201905081810360008301526139998161395d565b9050919050565b7f455243373231456e756d657261626c653a20676c6f62616c20696e646578206f60008201527f7574206f6620626f756e64730000000000000000000000000000000000000000602082015250565b60006139fc602c83612d8e565b9150613a07826139a0565b604082019050919050565b60006020820190508181036000830152613a2b816139ef565b9050919050565b7f4552433732313a206f776e657220717565727920666f72206e6f6e657869737460008201527f656e7420746f6b656e0000000000000000000000000000000000000000000000602082015250565b6000613a8e602983612d8e565b9150613a9982613a32565b604082019050919050565b60006020820190508181036000830152613abd81613a81565b9050919050565b7f4552433732313a2062616c616e636520717565727920666f7220746865207a6560008201527f726f206164647265737300000000000000000000000000000000000000000000602082015250565b6000613b20602a83612d8e565b9150613b2b82613ac4565b604082019050919050565b60006020820190508181036000830152613b4f81613b13565b9050919050565b7f4552433732314d657461646174613a2055524920717565727920666f72206e6f60008201527f6e6578697374656e7420746f6b656e0000000000000000000000000000000000602082015250565b6000613bb2602f83612d8e565b9150613bbd82613b56565b604082019050919050565b60006020820190508181036000830152613be181613ba5565b9050919050565b600081905092915050565b6000613bfe82612d83565b613c088185613be8565b9350613c18818560208601612d9f565b80840191505092915050565b6000613c308285613bf3565b9150613c3c8284613bf3565b91508190509392505050565b7f4f776e61626c653a206e6577206f776e657220697320746865207a65726f206160008201527f6464726573730000000000000000000000000000000000000000000000000000602082015250565b6000613ca4602683612d8e565b9150613caf82613c48565b604082019050919050565b60006020820190508181036000830152613cd381613c97565b9050919050565b7f4552433732313a206f70657261746f7220717565727920666f72206e6f6e657860008201527f697374656e7420746f6b656e0000000000000000000000000000000000000000602082015250565b6000613d36602c83612d8e565b9150613d4182613cda565b604082019050919050565b60006020820190508181036000830152613d6581613d29565b9050919050565b7f4552433732313a207472616e73666572206f6620746f6b656e2074686174206960008201527f73206e6f74206f776e0000000000000000000000000000000000000000000000602082015250565b6000613dc8602983612d8e565b9150613dd382613d6c565b604082019050919050565b60006020820190508181036000830152613df781613dbb565b9050919050565b7f4552433732313a207472616e7366657220746f20746865207a65726f2061646460008201527f7265737300000000000000000000000000000000000000000000000000000000602082015250565b6000613e5a602483612d8e565b9150613e6582613dfe565b604082019050919050565b60006020820190508181036000830152613e8981613e4d565b9050919050565b6000613e9b82612e3e565b9150613ea683612e3e565b925082821015613eb957613eb86137e4565b5b828203905092915050565b6000613ecf82612e3e565b9150613eda83612e3e565b9250827fffffffffffffffffffffffffffffffffffffffffffffffffffffffffffffffff03821115613f0f57613f0e6137e4565b5b828201905092915050565b7f5061757361626c653a206e6f7420706175736564000000000000000000000000600082015250565b6000613f50601483612d8e565b9150613f5b82613f1a565b602082019050919050565b60006020820190508181036000830152613f7f81613f43565b9050919050565b7f5061757361626c653a2070617573656400000000000000000000000000000000600082015250565b6000613fbc601083612d8e565b9150613fc782613f86565b602082019050919050565b60006020820190508181036000830152613feb81613faf565b9050919050565b7f4552433732313a20617070726f766520746f2063616c6c657200000000000000600082015250565b6000614028601983612d8e565b915061403382613ff2565b602082019050919050565b600060208201905081810360008301526140578161401b565b9050919050565b7f4552433732313a207472616e7366657220746f206e6f6e20455243373231526560008201527f63656976657220696d706c656d656e7465720000000000000000000000000000602082015250565b60006140ba603283612d8e565b91506140c58261405e565b604082019050919050565b600060208201905081810360008301526140e9816140ad565b9050919050565b7f4e487b7100000000000000000000000000000000000000000000000000000000600052601260045260246000fd5b600061412a82612e3e565b915061413583612e3e565b925082614145576141446140f0565b5b828204905092915050565b600061415b82612e3e565b915061416683612e3e565b925082614176576141756140f0565b5b828206905092915050565b600081519050919050565b600082825260208201905092915050565b60006141a882614181565b6141b2818561418c565b93506141c2818560208601612d9f565b6141cb81612dd2565b840191505092915050565b60006080820190506141eb6000830187612ed3565b6141f86020830186612ed3565b6142056040830185612f96565b8181036060830152614217818461419d565b905095945050505050565b60008151905061423181612cf4565b92915050565b60006020828403121561424d5761424c612cbe565b5b600061425b84828501614222565b91505092915050565b7f4552433732313a206d696e7420746f20746865207a65726f2061646472657373600082015250565b600061429a602083612d8e565b91506142a582614264565b602082019050919050565b600060208201905081810360008301526142c98161428d565b9050919050565b7f4552433732313a20746f6b656e20616c7265616479206d696e74656400000000600082015250565b6000614306601c83612d8e565b9150614311826142d0565b602082019050919050565b60006020820190508181036000830152614335816142f9565b9050919050565b7f4e487b7100000000000000000000000000000000000000000000000000000000600052603160045260246000fdfea26469706673582212202415624e6bd488996851ce8bd11a499e5fa0a382364e042f1d81ee4d01e2cf2e64736f6c634300080a0033",
  "immutableReferences": {},
  "source": "// SPDX-License-Identifier: MIT\npragma solidity ^0.8.2;\n\nimport \"@openzeppelin/contracts/token/ERC721/ERC721.sol\";\nimport \"@openzeppelin/contracts/token/ERC721/extensions/ERC721Enumerable.sol\";\nimport \"@openzeppelin/contracts/security/Pausable.sol\";\nimport \"@openzeppelin/contracts/access/Ownable.sol\";\nimport \"@openzeppelin/contracts/utils/Counters.sol\";\n\ncontract IceyPandaz is ERC721, ERC721Enumerable, Pausable, Ownable {\n    using Counters for Counters.Counter;\n\n    string public baseURI;\n    address[] public whitelistedAddresses;\n\n    Counters.Counter private _tokenIdCounter;\n\n    uint256 public mintRate = 0.04 ether;\n    uint256 public MAX_SUPPLY = 850;\n\n    constructor() ERC721(\"IceyPandaz\", \"ICP\") {}\n\n    function _baseURI() internal view override returns (string memory) {\n        return baseURI;\n    }\n\n    function setBaseURI(string memory _newBaseURI) public onlyOwner {\n        baseURI = _newBaseURI;\n    }\n\n    function pause() public onlyOwner {\n        _pause();\n    }\n\n    function unpause() public onlyOwner {\n        _unpause();\n    }\n\n    function safeMint(address to) public payable {\n        require(totalSupply() < MAX_SUPPLY, \"all tokens have been minted\");\n        require(MAX_SUPPLY < 351, \"all tokens have been minted\");\n        require(msg.value >= mintRate, \"not enough eth to mint\");\n        _tokenIdCounter.increment();\n        uint256 tokenId = _tokenIdCounter.current();\n        _safeMint(to, tokenId);\n    }\n\n    function safeMintWhiteList(address to) public {\n        require(isWhitelisted(msg.sender), \"user is not whitelisted\");\n        _tokenIdCounter.increment();\n        uint256 tokenId = _tokenIdCounter.current();\n        _safeMint(to, tokenId);\n    }\n\n    function isWhitelisted(address _user) public view returns (bool) {\n        for (uint256 i = 0; i < whitelistedAddresses.length; i++) {\n            if (whitelistedAddresses[i] == _user) {\n                return true;\n            }\n        }\n        return false;\n    }\n\n    function whitelistUsers(address[] calldata _users) public onlyOwner {\n        delete whitelistedAddresses;\n        whitelistedAddresses = _users;\n    }\n\n    function _beforeTokenTransfer(\n        address from,\n        address to,\n        uint256 tokenId\n    ) internal override(ERC721, ERC721Enumerable) whenNotPaused {\n        super._beforeTokenTransfer(from, to, tokenId);\n    }\n\n    // The following functions are overrides required by Solidity.\n\n    function supportsInterface(bytes4 interfaceId)\n        public\n        view\n        override(ERC721, ERC721Enumerable)\n        returns (bool)\n    {\n        return super.supportsInterface(interfaceId);\n    }\n\n    function withdraw() public onlyOwner {\n        payable(owner()).transfer(address(this).balance);\n    }\n}\n",
  "sourcePath": "/Users/jjcatulle/Desktop/nft-token-staking/contracts/MyNFTTest.sol",
  "compiler": {
    "name": "solc",
    "version": "0.8.10+commit.fc410830.Emscripten.clang"
  },
  "schemaVersion": "3.4.3",
  "updatedAt": "2021-12-29T04:24:06.639Z",
  "devdoc": {
    "kind": "dev",
    "methods": {
      "approve(address,uint256)": {
        "details": "See {IERC721-approve}."
      },
      "balanceOf(address)": {
        "details": "See {IERC721-balanceOf}."
      },
      "getApproved(uint256)": {
        "details": "See {IERC721-getApproved}."
      },
      "isApprovedForAll(address,address)": {
        "details": "See {IERC721-isApprovedForAll}."
      },
      "name()": {
        "details": "See {IERC721Metadata-name}."
      },
      "owner()": {
        "details": "Returns the address of the current owner."
      },
      "ownerOf(uint256)": {
        "details": "See {IERC721-ownerOf}."
      },
      "paused()": {
        "details": "Returns true if the contract is paused, and false otherwise."
      },
      "renounceOwnership()": {
        "details": "Leaves the contract without owner. It will not be possible to call `onlyOwner` functions anymore. Can only be called by the current owner. NOTE: Renouncing ownership will leave the contract without an owner, thereby removing any functionality that is only available to the owner."
      },
      "safeTransferFrom(address,address,uint256)": {
        "details": "See {IERC721-safeTransferFrom}."
      },
      "safeTransferFrom(address,address,uint256,bytes)": {
        "details": "See {IERC721-safeTransferFrom}."
      },
      "setApprovalForAll(address,bool)": {
        "details": "See {IERC721-setApprovalForAll}."
      },
      "symbol()": {
        "details": "See {IERC721Metadata-symbol}."
      },
      "tokenByIndex(uint256)": {
        "details": "See {IERC721Enumerable-tokenByIndex}."
      },
      "tokenOfOwnerByIndex(address,uint256)": {
        "details": "See {IERC721Enumerable-tokenOfOwnerByIndex}."
      },
      "tokenURI(uint256)": {
        "details": "See {IERC721Metadata-tokenURI}."
      },
      "totalSupply()": {
        "details": "See {IERC721Enumerable-totalSupply}."
      },
      "transferFrom(address,address,uint256)": {
        "details": "See {IERC721-transferFrom}."
      },
      "transferOwnership(address)": {
        "details": "Transfers ownership of the contract to a new account (`newOwner`). Can only be called by the current owner."
      }
    },
    "version": 1
  },
  "userdoc": {
    "kind": "user",
    "methods": {},
    "version": 1
  }
}