{
  "contractName": "MyNFT",
  "abi": [
    {
      "inputs": [
        {
          "internalType": "string",
          "name": "_name",
          "type": "string"
        },
        {
          "internalType": "string",
          "name": "_symbol",
          "type": "string"
        },
        {
          "internalType": "string",
          "name": "_initBaseURI",
          "type": "string"
        },
        {
          "internalType": "string",
          "name": "_initNotRevealedUri",
          "type": "string"
        }
      ],
      "stateMutability": "nonpayable",
      "type": "constructor"
    },
    {
      "anonymous": false,
      "inputs": [
        {
          "indexed": true,
          "internalType": "address",
          "name": "owner",
          "type": "address"
        },
        {
          "indexed": true,
          "internalType": "address",
          "name": "approved",
          "type": "address"
        },
        {
          "indexed": true,
          "internalType": "uint256",
          "name": "tokenId",
          "type": "uint256"
        }
      ],
      "name": "Approval",
      "type": "event"
    },
    {
      "anonymous": false,
      "inputs": [
        {
          "indexed": true,
          "internalType": "address",
          "name": "owner",
          "type": "address"
        },
        {
          "indexed": true,
          "internalType": "address",
          "name": "operator",
          "type": "address"
        },
        {
          "indexed": false,
          "internalType": "bool",
          "name": "approved",
          "type": "bool"
        }
      ],
      "name": "ApprovalForAll",
      "type": "event"
    },
    {
      "anonymous": false,
      "inputs": [
        {
          "indexed": true,
          "internalType": "address",
          "name": "previousOwner",
          "type": "address"
        },
        {
          "indexed": true,
          "internalType": "address",
          "name": "newOwner",
          "type": "address"
        }
      ],
      "name": "OwnershipTransferred",
      "type": "event"
    },
    {
      "anonymous": false,
      "inputs": [
        {
          "indexed": true,
          "internalType": "address",
          "name": "from",
          "type": "address"
        },
        {
          "indexed": true,
          "internalType": "address",
          "name": "to",
          "type": "address"
        },
        {
          "indexed": true,
          "internalType": "uint256",
          "name": "tokenId",
          "type": "uint256"
        }
      ],
      "name": "Transfer",
      "type": "event"
    },
    {
      "inputs": [
        {
          "internalType": "address",
          "name": "",
          "type": "address"
        }
      ],
      "name": "addressMintedBalance",
      "outputs": [
        {
          "internalType": "uint256",
          "name": "",
          "type": "uint256"
        }
      ],
      "stateMutability": "view",
      "type": "function",
      "constant": true
    },
    {
      "inputs": [
        {
          "internalType": "address",
          "name": "to",
          "type": "address"
        },
        {
          "internalType": "uint256",
          "name": "tokenId",
          "type": "uint256"
        }
      ],
      "name": "approve",
      "outputs": [],
      "stateMutability": "nonpayable",
      "type": "function"
    },
    {
      "inputs": [
        {
          "internalType": "address",
          "name": "owner",
          "type": "address"
        }
      ],
      "name": "balanceOf",
      "outputs": [
        {
          "internalType": "uint256",
          "name": "",
          "type": "uint256"
        }
      ],
      "stateMutability": "view",
      "type": "function",
      "constant": true
    },
    {
      "inputs": [],
      "name": "baseExtension",
      "outputs": [
        {
          "internalType": "string",
          "name": "",
          "type": "string"
        }
      ],
      "stateMutability": "view",
      "type": "function",
      "constant": true
    },
    {
      "inputs": [],
      "name": "baseURI",
      "outputs": [
        {
          "internalType": "string",
          "name": "",
          "type": "string"
        }
      ],
      "stateMutability": "view",
      "type": "function",
      "constant": true
    },
    {
      "inputs": [],
      "name": "cost",
      "outputs": [
        {
          "internalType": "uint256",
          "name": "",
          "type": "uint256"
        }
      ],
      "stateMutability": "view",
      "type": "function",
      "constant": true
    },
    {
      "inputs": [
        {
          "internalType": "uint256",
          "name": "tokenId",
          "type": "uint256"
        }
      ],
      "name": "getApproved",
      "outputs": [
        {
          "internalType": "address",
          "name": "",
          "type": "address"
        }
      ],
      "stateMutability": "view",
      "type": "function",
      "constant": true
    },
    {
      "inputs": [
        {
          "internalType": "address",
          "name": "owner",
          "type": "address"
        },
        {
          "internalType": "address",
          "name": "operator",
          "type": "address"
        }
      ],
      "name": "isApprovedForAll",
      "outputs": [
        {
          "internalType": "bool",
          "name": "",
          "type": "bool"
        }
      ],
      "stateMutability": "view",
      "type": "function",
      "constant": true
    },
    {
      "inputs": [],
      "name": "maxMintAmount",
      "outputs": [
        {
          "internalType": "uint256",
          "name": "",
          "type": "uint256"
        }
      ],
      "stateMutability": "view",
      "type": "function",
      "constant": true
    },
    {
      "inputs": [],
      "name": "maxSupply",
      "outputs": [
        {
          "internalType": "uint256",
          "name": "",
          "type": "uint256"
        }
      ],
      "stateMutability": "view",
      "type": "function",
      "constant": true
    },
    {
      "inputs": [],
      "name": "name",
      "outputs": [
        {
          "internalType": "string",
          "name": "",
          "type": "string"
        }
      ],
      "stateMutability": "view",
      "type": "function",
      "constant": true
    },
    {
      "inputs": [],
      "name": "nftPerAddressLimit",
      "outputs": [
        {
          "internalType": "uint256",
          "name": "",
          "type": "uint256"
        }
      ],
      "stateMutability": "view",
      "type": "function",
      "constant": true
    },
    {
      "inputs": [],
      "name": "notRevealedUri",
      "outputs": [
        {
          "internalType": "string",
          "name": "",
          "type": "string"
        }
      ],
      "stateMutability": "view",
      "type": "function",
      "constant": true
    },
    {
      "inputs": [],
      "name": "onlyWhitelisted",
      "outputs": [
        {
          "internalType": "bool",
          "name": "",
          "type": "bool"
        }
      ],
      "stateMutability": "view",
      "type": "function",
      "constant": true
    },
    {
      "inputs": [],
      "name": "owner",
      "outputs": [
        {
          "internalType": "address",
          "name": "",
          "type": "address"
        }
      ],
      "stateMutability": "view",
      "type": "function",
      "constant": true
    },
    {
      "inputs": [
        {
          "internalType": "uint256",
          "name": "tokenId",
          "type": "uint256"
        }
      ],
      "name": "ownerOf",
      "outputs": [
        {
          "internalType": "address",
          "name": "",
          "type": "address"
        }
      ],
      "stateMutability": "view",
      "type": "function",
      "constant": true
    },
    {
      "inputs": [],
      "name": "paused",
      "outputs": [
        {
          "internalType": "bool",
          "name": "",
          "type": "bool"
        }
      ],
      "stateMutability": "view",
      "type": "function",
      "constant": true
    },
    {
      "inputs": [],
      "name": "renounceOwnership",
      "outputs": [],
      "stateMutability": "nonpayable",
      "type": "function"
    },
    {
      "inputs": [],
      "name": "revealed",
      "outputs": [
        {
          "internalType": "bool",
          "name": "",
          "type": "bool"
        }
      ],
      "stateMutability": "view",
      "type": "function",
      "constant": true
    },
    {
      "inputs": [
        {
          "internalType": "address",
          "name": "from",
          "type": "address"
        },
        {
          "internalType": "address",
          "name": "to",
          "type": "address"
        },
        {
          "internalType": "uint256",
          "name": "tokenId",
          "type": "uint256"
        }
      ],
      "name": "safeTransferFrom",
      "outputs": [],
      "stateMutability": "nonpayable",
      "type": "function"
    },
    {
      "inputs": [
        {
          "internalType": "address",
          "name": "from",
          "type": "address"
        },
        {
          "internalType": "address",
          "name": "to",
          "type": "address"
        },
        {
          "internalType": "uint256",
          "name": "tokenId",
          "type": "uint256"
        },
        {
          "internalType": "bytes",
          "name": "_data",
          "type": "bytes"
        }
      ],
      "name": "safeTransferFrom",
      "outputs": [],
      "stateMutability": "nonpayable",
      "type": "function"
    },
    {
      "inputs": [
        {
          "internalType": "address",
          "name": "operator",
          "type": "address"
        },
        {
          "internalType": "bool",
          "name": "approved",
          "type": "bool"
        }
      ],
      "name": "setApprovalForAll",
      "outputs": [],
      "stateMutability": "nonpayable",
      "type": "function"
    },
    {
      "inputs": [
        {
          "internalType": "bytes4",
          "name": "interfaceId",
          "type": "bytes4"
        }
      ],
      "name": "supportsInterface",
      "outputs": [
        {
          "internalType": "bool",
          "name": "",
          "type": "bool"
        }
      ],
      "stateMutability": "view",
      "type": "function",
      "constant": true
    },
    {
      "inputs": [],
      "name": "symbol",
      "outputs": [
        {
          "internalType": "string",
          "name": "",
          "type": "string"
        }
      ],
      "stateMutability": "view",
      "type": "function",
      "constant": true
    },
    {
      "inputs": [
        {
          "internalType": "uint256",
          "name": "index",
          "type": "uint256"
        }
      ],
      "name": "tokenByIndex",
      "outputs": [
        {
          "internalType": "uint256",
          "name": "",
          "type": "uint256"
        }
      ],
      "stateMutability": "view",
      "type": "function",
      "constant": true
    },
    {
      "inputs": [
        {
          "internalType": "address",
          "name": "owner",
          "type": "address"
        },
        {
          "internalType": "uint256",
          "name": "index",
          "type": "uint256"
        }
      ],
      "name": "tokenOfOwnerByIndex",
      "outputs": [
        {
          "internalType": "uint256",
          "name": "",
          "type": "uint256"
        }
      ],
      "stateMutability": "view",
      "type": "function",
      "constant": true
    },
    {
      "inputs": [],
      "name": "totalSupply",
      "outputs": [
        {
          "internalType": "uint256",
          "name": "",
          "type": "uint256"
        }
      ],
      "stateMutability": "view",
      "type": "function",
      "constant": true
    },
    {
      "inputs": [
        {
          "internalType": "address",
          "name": "from",
          "type": "address"
        },
        {
          "internalType": "address",
          "name": "to",
          "type": "address"
        },
        {
          "internalType": "uint256",
          "name": "tokenId",
          "type": "uint256"
        }
      ],
      "name": "transferFrom",
      "outputs": [],
      "stateMutability": "nonpayable",
      "type": "function"
    },
    {
      "inputs": [
        {
          "internalType": "address",
          "name": "newOwner",
          "type": "address"
        }
      ],
      "name": "transferOwnership",
      "outputs": [],
      "stateMutability": "nonpayable",
      "type": "function"
    },
    {
      "inputs": [
        {
          "internalType": "uint256",
          "name": "",
          "type": "uint256"
        }
      ],
      "name": "whitelistedAddresses",
      "outputs": [
        {
          "internalType": "address",
          "name": "",
          "type": "address"
        }
      ],
      "stateMutability": "view",
      "type": "function",
      "constant": true
    },
    {
      "inputs": [
        {
          "internalType": "uint256",
          "name": "_mintAmount",
          "type": "uint256"
        }
      ],
      "name": "mint",
      "outputs": [],
      "stateMutability": "payable",
      "type": "function",
      "payable": true
    },
    {
      "inputs": [
        {
          "internalType": "address",
          "name": "_user",
          "type": "address"
        }
      ],
      "name": "isWhitelisted",
      "outputs": [
        {
          "internalType": "bool",
          "name": "",
          "type": "bool"
        }
      ],
      "stateMutability": "view",
      "type": "function",
      "constant": true
    },
    {
      "inputs": [
        {
          "internalType": "address",
          "name": "_owner",
          "type": "address"
        }
      ],
      "name": "walletOfOwner",
      "outputs": [
        {
          "internalType": "uint256[]",
          "name": "",
          "type": "uint256[]"
        }
      ],
      "stateMutability": "view",
      "type": "function",
      "constant": true
    },
    {
      "inputs": [
        {
          "internalType": "uint256",
          "name": "tokenId",
          "type": "uint256"
        }
      ],
      "name": "tokenURI",
      "outputs": [
        {
          "internalType": "string",
          "name": "",
          "type": "string"
        }
      ],
      "stateMutability": "view",
      "type": "function",
      "constant": true
    },
    {
      "inputs": [],
      "name": "reveal",
      "outputs": [],
      "stateMutability": "nonpayable",
      "type": "function"
    },
    {
      "inputs": [
        {
          "internalType": "uint256",
          "name": "_limit",
          "type": "uint256"
        }
      ],
      "name": "setNftPerAddressLimit",
      "outputs": [],
      "stateMutability": "nonpayable",
      "type": "function"
    },
    {
      "inputs": [
        {
          "internalType": "uint256",
          "name": "_newCost",
          "type": "uint256"
        }
      ],
      "name": "setCost",
      "outputs": [],
      "stateMutability": "nonpayable",
      "type": "function"
    },
    {
      "inputs": [
        {
          "internalType": "uint256",
          "name": "_newmaxMintAmount",
          "type": "uint256"
        }
      ],
      "name": "setmaxMintAmount",
      "outputs": [],
      "stateMutability": "nonpayable",
      "type": "function"
    },
    {
      "inputs": [
        {
          "internalType": "string",
          "name": "_newBaseURI",
          "type": "string"
        }
      ],
      "name": "setBaseURI",
      "outputs": [],
      "stateMutability": "nonpayable",
      "type": "function"
    },
    {
      "inputs": [
        {
          "internalType": "string",
          "name": "_newBaseExtension",
          "type": "string"
        }
      ],
      "name": "setBaseExtension",
      "outputs": [],
      "stateMutability": "nonpayable",
      "type": "function"
    },
    {
      "inputs": [
        {
          "internalType": "string",
          "name": "_notRevealedURI",
          "type": "string"
        }
      ],
      "name": "setNotRevealedURI",
      "outputs": [],
      "stateMutability": "nonpayable",
      "type": "function"
    },
    {
      "inputs": [
        {
          "internalType": "bool",
          "name": "_state",
          "type": "bool"
        }
      ],
      "name": "pause",
      "outputs": [],
      "stateMutability": "nonpayable",
      "type": "function"
    },
    {
      "inputs": [
        {
          "internalType": "bool",
          "name": "_state",
          "type": "bool"
        }
      ],
      "name": "setOnlyWhitelisted",
      "outputs": [],
      "stateMutability": "nonpayable",
      "type": "function"
    },
    {
      "inputs": [
        {
          "internalType": "uint256",
          "name": "_state",
          "type": "uint256"
        }
      ],
      "name": "setMaxLimit",
      "outputs": [],
      "stateMutability": "nonpayable",
      "type": "function"
    },
    {
      "inputs": [
        {
          "internalType": "address[]",
          "name": "_users",
          "type": "address[]"
        }
      ],
      "name": "whitelistUsers",
      "outputs": [],
      "stateMutability": "nonpayable",
      "type": "function"
    },
    {
      "inputs": [],
      "name": "withdraw",
      "outputs": [],
      "stateMutability": "payable",
      "type": "function",
      "payable": true
    }
  ],
  "bytecode": "0x60806040526040518060400160405280600581526020017f2e6a736f6e000000000000000000000000000000000000000000000000000000815250600c908051906020019062000051929190620003c3565b50668e1bc9bf040000600e55610352600f55614e206010556127106011556000601260006101000a81548160ff0219169083151502179055506000601260016101000a81548160ff0219169083151502179055506000601260026101000a81548160ff021916908315150217905550348015620000cd57600080fd5b506040516200587f3803806200587f8339818101604052810190620000f3919062000610565b838381600090805190602001906200010d929190620003c3565b50806001908051906020019062000126929190620003c3565b505050620001496200013d6200017560201b60201c565b6200017d60201b60201c565b6200015a826200024360201b60201c565b6200016b81620002ee60201b60201c565b50505050620007e6565b600033905090565b6000600a60009054906101000a900473ffffffffffffffffffffffffffffffffffffffff16905081600a60006101000a81548173ffffffffffffffffffffffffffffffffffffffff021916908373ffffffffffffffffffffffffffffffffffffffff1602179055508173ffffffffffffffffffffffffffffffffffffffff168173ffffffffffffffffffffffffffffffffffffffff167f8be0079c531659141344cd1fd0a4f28419497f9722a3daafe3b4186f6b6457e060405160405180910390a35050565b620002536200017560201b60201c565b73ffffffffffffffffffffffffffffffffffffffff16620002796200039960201b60201c565b73ffffffffffffffffffffffffffffffffffffffff1614620002d2576040517f08c379a0000000000000000000000000000000000000000000000000000000008152600401620002c9906200075f565b60405180910390fd5b80600b9080519060200190620002ea929190620003c3565b5050565b620002fe6200017560201b60201c565b73ffffffffffffffffffffffffffffffffffffffff16620003246200039960201b60201c565b73ffffffffffffffffffffffffffffffffffffffff16146200037d576040517f08c379a000000000000000000000000000000000000000000000000000000000815260040162000374906200075f565b60405180910390fd5b80600d908051906020019062000395929190620003c3565b5050565b6000600a60009054906101000a900473ffffffffffffffffffffffffffffffffffffffff16905090565b828054620003d190620007b0565b90600052602060002090601f016020900481019282620003f5576000855562000441565b82601f106200041057805160ff191683800117855562000441565b8280016001018555821562000441579182015b828111156200044057825182559160200191906001019062000423565b5b50905062000450919062000454565b5090565b5b808211156200046f57600081600090555060010162000455565b5090565b6000604051905090565b600080fd5b600080fd5b600080fd5b600080fd5b6000601f19601f8301169050919050565b7f4e487b7100000000000000000000000000000000000000000000000000000000600052604160045260246000fd5b620004dc8262000491565b810181811067ffffffffffffffff82111715620004fe57620004fd620004a2565b5b80604052505050565b60006200051362000473565b9050620005218282620004d1565b919050565b600067ffffffffffffffff821115620005445762000543620004a2565b5b6200054f8262000491565b9050602081019050919050565b60005b838110156200057c5780820151818401526020810190506200055f565b838111156200058c576000848401525b50505050565b6000620005a9620005a38462000526565b62000507565b905082815260208101848484011115620005c857620005c76200048c565b5b620005d58482856200055c565b509392505050565b600082601f830112620005f557620005f462000487565b5b81516200060784826020860162000592565b91505092915050565b600080600080608085870312156200062d576200062c6200047d565b5b600085015167ffffffffffffffff8111156200064e576200064d62000482565b5b6200065c87828801620005dd565b945050602085015167ffffffffffffffff81111562000680576200067f62000482565b5b6200068e87828801620005dd565b935050604085015167ffffffffffffffff811115620006b257620006b162000482565b5b620006c087828801620005dd565b925050606085015167ffffffffffffffff811115620006e457620006e362000482565b5b620006f287828801620005dd565b91505092959194509250565b600082825260208201905092915050565b7f4f776e61626c653a2063616c6c6572206973206e6f7420746865206f776e6572600082015250565b600062000747602083620006fe565b915062000754826200070f565b602082019050919050565b600060208201905081810360008301526200077a8162000738565b9050919050565b7f4e487b7100000000000000000000000000000000000000000000000000000000600052602260045260246000fd5b60006002820490506001821680620007c957607f821691505b60208210811415620007e057620007df62000781565b5b50919050565b61508980620007f66000396000f3fe60806040526004361061027d5760003560e01c80636c0360eb1161014f578063ba4e5c49116100c1578063d5abeb011161007a578063d5abeb0114610990578063da3ef23f146109bb578063e985e9c5146109e4578063edec5f2714610a21578063f2c4ce1e14610a4a578063f2fde38b14610a735761027d565b8063ba4e5c491461086e578063ba7d2c76146108ab578063bf8bcee4146108d6578063c6682862146108ff578063c87b56dd1461092a578063d0eb26b0146109675761027d565b806395d89b411161011357806395d89b41146107935780639c70b512146107be578063a0712d68146107e9578063a22cb46514610805578063a475b5dd1461082e578063b88d4fde146108455761027d565b80636c0360eb146106c057806370a08231146106eb578063715018a6146107285780637f00c7a61461073f5780638da5cb5b146107685761027d565b80632f745c59116101f357806344a0d68a116101ac57806344a0d68a1461059e5780634f6ccce7146105c7578063518302271461060457806355f804b31461062f5780635c975abb146106585780636352211e146106835761027d565b80632f745c591461048b5780633af32abf146104c85780633c952764146105055780633ccfd60b1461052e57806342842e0e14610538578063438b6300146105615761027d565b8063095ea7b311610245578063095ea7b31461037b57806313faede6146103a457806318160ddd146103cf57806318cae269146103fa578063239c70ae1461043757806323b872dd146104625761027d565b806301ffc9a71461028257806302329a29146102bf57806306fdde03146102e8578063081812fc14610313578063081c8c4414610350575b600080fd5b34801561028e57600080fd5b506102a960048036038101906102a49190613702565b610a9c565b6040516102b6919061374a565b60405180910390f35b3480156102cb57600080fd5b506102e660048036038101906102e19190613791565b610b16565b005b3480156102f457600080fd5b506102fd610baf565b60405161030a9190613857565b60405180910390f35b34801561031f57600080fd5b5061033a600480360381019061033591906138af565b610c41565b604051610347919061391d565b60405180910390f35b34801561035c57600080fd5b50610365610cc6565b6040516103729190613857565b60405180910390f35b34801561038757600080fd5b506103a2600480360381019061039d9190613964565b610d54565b005b3480156103b057600080fd5b506103b9610e6c565b6040516103c691906139b3565b60405180910390f35b3480156103db57600080fd5b506103e4610e72565b6040516103f191906139b3565b60405180910390f35b34801561040657600080fd5b50610421600480360381019061041c91906139ce565b610e7f565b60405161042e91906139b3565b60405180910390f35b34801561044357600080fd5b5061044c610e97565b60405161045991906139b3565b60405180910390f35b34801561046e57600080fd5b50610489600480360381019061048491906139fb565b610e9d565b005b34801561049757600080fd5b506104b260048036038101906104ad9190613964565b610efd565b6040516104bf91906139b3565b60405180910390f35b3480156104d457600080fd5b506104ef60048036038101906104ea91906139ce565b610fa2565b6040516104fc919061374a565b60405180910390f35b34801561051157600080fd5b5061052c60048036038101906105279190613791565b611051565b005b6105366110ea565b005b34801561054457600080fd5b5061055f600480360381019061055a91906139fb565b6111b6565b005b34801561056d57600080fd5b50610588600480360381019061058391906139ce565b6111d6565b6040516105959190613b0c565b60405180910390f35b3480156105aa57600080fd5b506105c560048036038101906105c091906138af565b611284565b005b3480156105d357600080fd5b506105ee60048036038101906105e991906138af565b61130a565b6040516105fb91906139b3565b60405180910390f35b34801561061057600080fd5b5061061961137b565b604051610626919061374a565b60405180910390f35b34801561063b57600080fd5b5061065660048036038101906106519190613c63565b61138e565b005b34801561066457600080fd5b5061066d611424565b60405161067a919061374a565b60405180910390f35b34801561068f57600080fd5b506106aa60048036038101906106a591906138af565b611437565b6040516106b7919061391d565b60405180910390f35b3480156106cc57600080fd5b506106d56114e9565b6040516106e29190613857565b60405180910390f35b3480156106f757600080fd5b50610712600480360381019061070d91906139ce565b611577565b60405161071f91906139b3565b60405180910390f35b34801561073457600080fd5b5061073d61162f565b005b34801561074b57600080fd5b50610766600480360381019061076191906138af565b6116b7565b005b34801561077457600080fd5b5061077d61173d565b60405161078a919061391d565b60405180910390f35b34801561079f57600080fd5b506107a8611767565b6040516107b59190613857565b60405180910390f35b3480156107ca57600080fd5b506107d36117f9565b6040516107e0919061374a565b60405180910390f35b61080360048036038101906107fe91906138af565b61180c565b005b34801561081157600080fd5b5061082c60048036038101906108279190613cac565b611b55565b005b34801561083a57600080fd5b50610843611b6b565b005b34801561085157600080fd5b5061086c60048036038101906108679190613d8d565b611c04565b005b34801561087a57600080fd5b50610895600480360381019061089091906138af565b611c66565b6040516108a2919061391d565b60405180910390f35b3480156108b757600080fd5b506108c0611ca5565b6040516108cd91906139b3565b60405180910390f35b3480156108e257600080fd5b506108fd60048036038101906108f891906138af565b611cab565b005b34801561090b57600080fd5b50610914611d31565b6040516109219190613857565b60405180910390f35b34801561093657600080fd5b50610951600480360381019061094c91906138af565b611dbf565b60405161095e9190613857565b60405180910390f35b34801561097357600080fd5b5061098e600480360381019061098991906138af565b611f18565b005b34801561099c57600080fd5b506109a5611f9e565b6040516109b291906139b3565b60405180910390f35b3480156109c757600080fd5b506109e260048036038101906109dd9190613c63565b611fa4565b005b3480156109f057600080fd5b50610a0b6004803603810190610a069190613e10565b61203a565b604051610a18919061374a565b60405180910390f35b348015610a2d57600080fd5b50610a486004803603810190610a439190613eb0565b6120ce565b005b348015610a5657600080fd5b50610a716004803603810190610a6c9190613c63565b61216e565b005b348015610a7f57600080fd5b50610a9a6004803603810190610a9591906139ce565b612204565b005b60007f780e9d63000000000000000000000000000000000000000000000000000000007bffffffffffffffffffffffffffffffffffffffffffffffffffffffff1916827bffffffffffffffffffffffffffffffffffffffffffffffffffffffff19161480610b0f5750610b0e826122fc565b5b9050919050565b610b1e6123de565b73ffffffffffffffffffffffffffffffffffffffff16610b3c61173d565b73ffffffffffffffffffffffffffffffffffffffff1614610b92576040517f08c379a0000000000000000000000000000000000000000000000000000000008152600401610b8990613f49565b60405180910390fd5b80601260006101000a81548160ff02191690831515021790555050565b606060008054610bbe90613f98565b80601f0160208091040260200160405190810160405280929190818152602001828054610bea90613f98565b8015610c375780601f10610c0c57610100808354040283529160200191610c37565b820191906000526020600020905b815481529060010190602001808311610c1a57829003601f168201915b5050505050905090565b6000610c4c826123e6565b610c8b576040517f08c379a0000000000000000000000000000000000000000000000000000000008152600401610c829061403c565b60405180910390fd5b6004600083815260200190815260200160002060009054906101000a900473ffffffffffffffffffffffffffffffffffffffff169050919050565b600d8054610cd390613f98565b80601f0160208091040260200160405190810160405280929190818152602001828054610cff90613f98565b8015610d4c5780601f10610d2157610100808354040283529160200191610d4c565b820191906000526020600020905b815481529060010190602001808311610d2f57829003601f168201915b505050505081565b6000610d5f82611437565b90508073ffffffffffffffffffffffffffffffffffffffff168373ffffffffffffffffffffffffffffffffffffffff161415610dd0576040517f08c379a0000000000000000000000000000000000000000000000000000000008152600401610dc7906140ce565b60405180910390fd5b8073ffffffffffffffffffffffffffffffffffffffff16610def6123de565b73ffffffffffffffffffffffffffffffffffffffff161480610e1e5750610e1d81610e186123de565b61203a565b5b610e5d576040517f08c379a0000000000000000000000000000000000000000000000000000000008152600401610e5490614160565b60405180910390fd5b610e678383612452565b505050565b600e5481565b6000600880549050905090565b60146020528060005260406000206000915090505481565b60105481565b610eae610ea86123de565b8261250b565b610eed576040517f08c379a0000000000000000000000000000000000000000000000000000000008152600401610ee4906141f2565b60405180910390fd5b610ef88383836125e9565b505050565b6000610f0883611577565b8210610f49576040517f08c379a0000000000000000000000000000000000000000000000000000000008152600401610f4090614284565b60405180910390fd5b600660008473ffffffffffffffffffffffffffffffffffffffff1673ffffffffffffffffffffffffffffffffffffffff168152602001908152602001600020600083815260200190815260200160002054905092915050565b600080600090505b601380549050811015611046578273ffffffffffffffffffffffffffffffffffffffff1660138281548110610fe257610fe16142a4565b5b9060005260206000200160009054906101000a900473ffffffffffffffffffffffffffffffffffffffff1673ffffffffffffffffffffffffffffffffffffffff16141561103357600191505061104c565b808061103e90614302565b915050610faa565b50600090505b919050565b6110596123de565b73ffffffffffffffffffffffffffffffffffffffff1661107761173d565b73ffffffffffffffffffffffffffffffffffffffff16146110cd576040517f08c379a00000000000000000000000000000000000000000000000000000000081526004016110c490613f49565b60405180910390fd5b80601260026101000a81548160ff02191690831515021790555050565b6110f26123de565b73ffffffffffffffffffffffffffffffffffffffff1661111061173d565b73ffffffffffffffffffffffffffffffffffffffff1614611166576040517f08c379a000000000000000000000000000000000000000000000000000000000815260040161115d90613f49565b60405180910390fd5b61116e61173d565b73ffffffffffffffffffffffffffffffffffffffff166108fc479081150290604051600060405180830381858888f193505050501580156111b3573d6000803e3d6000fd5b50565b6111d183838360405180602001604052806000815250611c04565b505050565b606060006111e383611577565b905060008167ffffffffffffffff81111561120157611200613b38565b5b60405190808252806020026020018201604052801561122f5781602001602082028036833780820191505090505b50905060005b82811015611279576112478582610efd565b82828151811061125a576112596142a4565b5b602002602001018181525050808061127190614302565b915050611235565b508092505050919050565b61128c6123de565b73ffffffffffffffffffffffffffffffffffffffff166112aa61173d565b73ffffffffffffffffffffffffffffffffffffffff1614611300576040517f08c379a00000000000000000000000000000000000000000000000000000000081526004016112f790613f49565b60405180910390fd5b80600e8190555050565b6000611314610e72565b8210611355576040517f08c379a000000000000000000000000000000000000000000000000000000000815260040161134c906143bd565b60405180910390fd5b60088281548110611369576113686142a4565b5b90600052602060002001549050919050565b601260019054906101000a900460ff1681565b6113966123de565b73ffffffffffffffffffffffffffffffffffffffff166113b461173d565b73ffffffffffffffffffffffffffffffffffffffff161461140a576040517f08c379a000000000000000000000000000000000000000000000000000000000815260040161140190613f49565b60405180910390fd5b80600b9080519060200190611420929190613532565b5050565b601260009054906101000a900460ff1681565b6000806002600084815260200190815260200160002060009054906101000a900473ffffffffffffffffffffffffffffffffffffffff169050600073ffffffffffffffffffffffffffffffffffffffff168173ffffffffffffffffffffffffffffffffffffffff1614156114e0576040517f08c379a00000000000000000000000000000000000000000000000000000000081526004016114d79061444f565b60405180910390fd5b80915050919050565b600b80546114f690613f98565b80601f016020809104026020016040519081016040528092919081815260200182805461152290613f98565b801561156f5780601f106115445761010080835404028352916020019161156f565b820191906000526020600020905b81548152906001019060200180831161155257829003601f168201915b505050505081565b60008073ffffffffffffffffffffffffffffffffffffffff168273ffffffffffffffffffffffffffffffffffffffff1614156115e8576040517f08c379a00000000000000000000000000000000000000000000000000000000081526004016115df906144e1565b60405180910390fd5b600360008373ffffffffffffffffffffffffffffffffffffffff1673ffffffffffffffffffffffffffffffffffffffff168152602001908152602001600020549050919050565b6116376123de565b73ffffffffffffffffffffffffffffffffffffffff1661165561173d565b73ffffffffffffffffffffffffffffffffffffffff16146116ab576040517f08c379a00000000000000000000000000000000000000000000000000000000081526004016116a290613f49565b60405180910390fd5b6116b56000612845565b565b6116bf6123de565b73ffffffffffffffffffffffffffffffffffffffff166116dd61173d565b73ffffffffffffffffffffffffffffffffffffffff1614611733576040517f08c379a000000000000000000000000000000000000000000000000000000000815260040161172a90613f49565b60405180910390fd5b8060108190555050565b6000600a60009054906101000a900473ffffffffffffffffffffffffffffffffffffffff16905090565b60606001805461177690613f98565b80601f01602080910402602001604051908101604052809291908181526020018280546117a290613f98565b80156117ef5780601f106117c4576101008083540402835291602001916117ef565b820191906000526020600020905b8154815290600101906020018083116117d257829003601f168201915b5050505050905090565b601260029054906101000a900460ff1681565b601260009054906101000a900460ff161561185c576040517f08c379a00000000000000000000000000000000000000000000000000000000081526004016118539061454d565b60405180910390fd5b6000611866610e72565b9050600082116118ab576040517f08c379a00000000000000000000000000000000000000000000000000000000081526004016118a2906145b9565b60405180910390fd5b6010548211156118f0576040517f08c379a00000000000000000000000000000000000000000000000000000000081526004016118e79061464b565b60405180910390fd5b600f5482826118ff919061466b565b1115611940576040517f08c379a00000000000000000000000000000000000000000000000000000000081526004016119379061470d565b60405180910390fd5b61194861173d565b73ffffffffffffffffffffffffffffffffffffffff163373ffffffffffffffffffffffffffffffffffffffff1614611ac55760011515601260029054906101000a900460ff1615151415611a745761199f33610fa2565b6119de576040517f08c379a00000000000000000000000000000000000000000000000000000000081526004016119d590614779565b60405180910390fd5b6000601460003373ffffffffffffffffffffffffffffffffffffffff1673ffffffffffffffffffffffffffffffffffffffff1681526020019081526020016000205490506011548382611a31919061466b565b1115611a72576040517f08c379a0000000000000000000000000000000000000000000000000000000008152600401611a69906147e5565b60405180910390fd5b505b81600e54611a829190614805565b341015611ac4576040517f08c379a0000000000000000000000000000000000000000000000000000000008152600401611abb906148ab565b60405180910390fd5b5b6000600190505b828111611b5057601460003373ffffffffffffffffffffffffffffffffffffffff1673ffffffffffffffffffffffffffffffffffffffff1681526020019081526020016000206000815480929190611b2390614302565b9190505550611b3d338284611b38919061466b565b61290b565b8080611b4890614302565b915050611acc565b505050565b611b67611b606123de565b8383612929565b5050565b611b736123de565b73ffffffffffffffffffffffffffffffffffffffff16611b9161173d565b73ffffffffffffffffffffffffffffffffffffffff1614611be7576040517f08c379a0000000000000000000000000000000000000000000000000000000008152600401611bde90613f49565b60405180910390fd5b6001601260016101000a81548160ff021916908315150217905550565b611c15611c0f6123de565b8361250b565b611c54576040517f08c379a0000000000000000000000000000000000000000000000000000000008152600401611c4b906141f2565b60405180910390fd5b611c6084848484612a96565b50505050565b60138181548110611c7657600080fd5b906000526020600020016000915054906101000a900473ffffffffffffffffffffffffffffffffffffffff1681565b60115481565b611cb36123de565b73ffffffffffffffffffffffffffffffffffffffff16611cd161173d565b73ffffffffffffffffffffffffffffffffffffffff1614611d27576040517f08c379a0000000000000000000000000000000000000000000000000000000008152600401611d1e90613f49565b60405180910390fd5b80600f8190555050565b600c8054611d3e90613f98565b80601f0160208091040260200160405190810160405280929190818152602001828054611d6a90613f98565b8015611db75780601f10611d8c57610100808354040283529160200191611db7565b820191906000526020600020905b815481529060010190602001808311611d9a57829003601f168201915b505050505081565b6060611dca826123e6565b611e09576040517f08c379a0000000000000000000000000000000000000000000000000000000008152600401611e009061493d565b60405180910390fd5b60001515601260019054906101000a900460ff1615151415611eb757600d8054611e3290613f98565b80601f0160208091040260200160405190810160405280929190818152602001828054611e5e90613f98565b8015611eab5780601f10611e8057610100808354040283529160200191611eab565b820191906000526020600020905b815481529060010190602001808311611e8e57829003601f168201915b50505050509050611f13565b6000611ec1612af2565b90506000815111611ee15760405180602001604052806000815250611f0f565b80611eeb84612b84565b600c604051602001611eff93929190614a2d565b6040516020818303038152906040525b9150505b919050565b611f206123de565b73ffffffffffffffffffffffffffffffffffffffff16611f3e61173d565b73ffffffffffffffffffffffffffffffffffffffff1614611f94576040517f08c379a0000000000000000000000000000000000000000000000000000000008152600401611f8b90613f49565b60405180910390fd5b8060118190555050565b600f5481565b611fac6123de565b73ffffffffffffffffffffffffffffffffffffffff16611fca61173d565b73ffffffffffffffffffffffffffffffffffffffff1614612020576040517f08c379a000000000000000000000000000000000000000000000000000000000815260040161201790613f49565b60405180910390fd5b80600c9080519060200190612036929190613532565b5050565b6000600560008473ffffffffffffffffffffffffffffffffffffffff1673ffffffffffffffffffffffffffffffffffffffff16815260200190815260200160002060008373ffffffffffffffffffffffffffffffffffffffff1673ffffffffffffffffffffffffffffffffffffffff16815260200190815260200160002060009054906101000a900460ff16905092915050565b6120d66123de565b73ffffffffffffffffffffffffffffffffffffffff166120f461173d565b73ffffffffffffffffffffffffffffffffffffffff161461214a576040517f08c379a000000000000000000000000000000000000000000000000000000000815260040161214190613f49565b60405180910390fd5b6013600061215891906135b8565b8181601391906121699291906135d9565b505050565b6121766123de565b73ffffffffffffffffffffffffffffffffffffffff1661219461173d565b73ffffffffffffffffffffffffffffffffffffffff16146121ea576040517f08c379a00000000000000000000000000000000000000000000000000000000081526004016121e190613f49565b60405180910390fd5b80600d9080519060200190612200929190613532565b5050565b61220c6123de565b73ffffffffffffffffffffffffffffffffffffffff1661222a61173d565b73ffffffffffffffffffffffffffffffffffffffff1614612280576040517f08c379a000000000000000000000000000000000000000000000000000000000815260040161227790613f49565b60405180910390fd5b600073ffffffffffffffffffffffffffffffffffffffff168173ffffffffffffffffffffffffffffffffffffffff1614156122f0576040517f08c379a00000000000000000000000000000000000000000000000000000000081526004016122e790614ad0565b60405180910390fd5b6122f981612845565b50565b60007f80ac58cd000000000000000000000000000000000000000000000000000000007bffffffffffffffffffffffffffffffffffffffffffffffffffffffff1916827bffffffffffffffffffffffffffffffffffffffffffffffffffffffff191614806123c757507f5b5e139f000000000000000000000000000000000000000000000000000000007bffffffffffffffffffffffffffffffffffffffffffffffffffffffff1916827bffffffffffffffffffffffffffffffffffffffffffffffffffffffff1916145b806123d757506123d682612ce5565b5b9050919050565b600033905090565b60008073ffffffffffffffffffffffffffffffffffffffff166002600084815260200190815260200160002060009054906101000a900473ffffffffffffffffffffffffffffffffffffffff1673ffffffffffffffffffffffffffffffffffffffff1614159050919050565b816004600083815260200190815260200160002060006101000a81548173ffffffffffffffffffffffffffffffffffffffff021916908373ffffffffffffffffffffffffffffffffffffffff160217905550808273ffffffffffffffffffffffffffffffffffffffff166124c583611437565b73ffffffffffffffffffffffffffffffffffffffff167f8c5be1e5ebec7d5bd14f71427d1e84f3dd0314c0f7b2291e5b200ac8c7c3b92560405160405180910390a45050565b6000612516826123e6565b612555576040517f08c379a000000000000000000000000000000000000000000000000000000000815260040161254c90614b62565b60405180910390fd5b600061256083611437565b90508073ffffffffffffffffffffffffffffffffffffffff168473ffffffffffffffffffffffffffffffffffffffff1614806125cf57508373ffffffffffffffffffffffffffffffffffffffff166125b784610c41565b73ffffffffffffffffffffffffffffffffffffffff16145b806125e057506125df818561203a565b5b91505092915050565b8273ffffffffffffffffffffffffffffffffffffffff1661260982611437565b73ffffffffffffffffffffffffffffffffffffffff161461265f576040517f08c379a000000000000000000000000000000000000000000000000000000000815260040161265690614bf4565b60405180910390fd5b600073ffffffffffffffffffffffffffffffffffffffff168273ffffffffffffffffffffffffffffffffffffffff1614156126cf576040517f08c379a00000000000000000000000000000000000000000000000000000000081526004016126c690614c86565b60405180910390fd5b6126da838383612d4f565b6126e5600082612452565b6001600360008573ffffffffffffffffffffffffffffffffffffffff1673ffffffffffffffffffffffffffffffffffffffff16815260200190815260200160002060008282546127359190614ca6565b925050819055506001600360008473ffffffffffffffffffffffffffffffffffffffff1673ffffffffffffffffffffffffffffffffffffffff168152602001908152602001600020600082825461278c919061466b565b92505081905550816002600083815260200190815260200160002060006101000a81548173ffffffffffffffffffffffffffffffffffffffff021916908373ffffffffffffffffffffffffffffffffffffffff160217905550808273ffffffffffffffffffffffffffffffffffffffff168473ffffffffffffffffffffffffffffffffffffffff167fddf252ad1be2c89b69c2b068fc378daa952ba7f163c4a11628f55a4df523b3ef60405160405180910390a4505050565b6000600a60009054906101000a900473ffffffffffffffffffffffffffffffffffffffff16905081600a60006101000a81548173ffffffffffffffffffffffffffffffffffffffff021916908373ffffffffffffffffffffffffffffffffffffffff1602179055508173ffffffffffffffffffffffffffffffffffffffff168173ffffffffffffffffffffffffffffffffffffffff167f8be0079c531659141344cd1fd0a4f28419497f9722a3daafe3b4186f6b6457e060405160405180910390a35050565b612925828260405180602001604052806000815250612e63565b5050565b8173ffffffffffffffffffffffffffffffffffffffff168373ffffffffffffffffffffffffffffffffffffffff161415612998576040517f08c379a000000000000000000000000000000000000000000000000000000000815260040161298f90614d26565b60405180910390fd5b80600560008573ffffffffffffffffffffffffffffffffffffffff1673ffffffffffffffffffffffffffffffffffffffff16815260200190815260200160002060008473ffffffffffffffffffffffffffffffffffffffff1673ffffffffffffffffffffffffffffffffffffffff16815260200190815260200160002060006101000a81548160ff0219169083151502179055508173ffffffffffffffffffffffffffffffffffffffff168373ffffffffffffffffffffffffffffffffffffffff167f17307eab39ab6107e8899845ad3d59bd9653f200f220920489ca2b5937696c3183604051612a89919061374a565b60405180910390a3505050565b612aa18484846125e9565b612aad84848484612ebe565b612aec576040517f08c379a0000000000000000000000000000000000000000000000000000000008152600401612ae390614db8565b60405180910390fd5b50505050565b6060600b8054612b0190613f98565b80601f0160208091040260200160405190810160405280929190818152602001828054612b2d90613f98565b8015612b7a5780601f10612b4f57610100808354040283529160200191612b7a565b820191906000526020600020905b815481529060010190602001808311612b5d57829003601f168201915b5050505050905090565b60606000821415612bcc576040518060400160405280600181526020017f30000000000000000000000000000000000000000000000000000000000000008152509050612ce0565b600082905060005b60008214612bfe578080612be790614302565b915050600a82612bf79190614e07565b9150612bd4565b60008167ffffffffffffffff811115612c1a57612c19613b38565b5b6040519080825280601f01601f191660200182016040528015612c4c5781602001600182028036833780820191505090505b5090505b60008514612cd957600182612c659190614ca6565b9150600a85612c749190614e38565b6030612c80919061466b565b60f81b818381518110612c9657612c956142a4565b5b60200101907effffffffffffffffffffffffffffffffffffffffffffffffffffffffffffff1916908160001a905350600a85612cd29190614e07565b9450612c50565b8093505050505b919050565b60007f01ffc9a7000000000000000000000000000000000000000000000000000000007bffffffffffffffffffffffffffffffffffffffffffffffffffffffff1916827bffffffffffffffffffffffffffffffffffffffffffffffffffffffff1916149050919050565b612d5a838383613046565b600073ffffffffffffffffffffffffffffffffffffffff168373ffffffffffffffffffffffffffffffffffffffff161415612d9d57612d988161304b565b612ddc565b8173ffffffffffffffffffffffffffffffffffffffff168373ffffffffffffffffffffffffffffffffffffffff1614612ddb57612dda8382613094565b5b5b600073ffffffffffffffffffffffffffffffffffffffff168273ffffffffffffffffffffffffffffffffffffffff161415612e1f57612e1a81613201565b612e5e565b8273ffffffffffffffffffffffffffffffffffffffff168273ffffffffffffffffffffffffffffffffffffffff1614612e5d57612e5c82826132d2565b5b5b505050565b612e6d8383613351565b612e7a6000848484612ebe565b612eb9576040517f08c379a0000000000000000000000000000000000000000000000000000000008152600401612eb090614db8565b60405180910390fd5b505050565b6000612edf8473ffffffffffffffffffffffffffffffffffffffff1661351f565b15613039578373ffffffffffffffffffffffffffffffffffffffff1663150b7a02612f086123de565b8786866040518563ffffffff1660e01b8152600401612f2a9493929190614ebe565b6020604051808303816000875af1925050508015612f6657506040513d601f19601f82011682018060405250810190612f639190614f1f565b60015b612fe9573d8060008114612f96576040519150601f19603f3d011682016040523d82523d6000602084013e612f9b565b606091505b50600081511415612fe1576040517f08c379a0000000000000000000000000000000000000000000000000000000008152600401612fd890614db8565b60405180910390fd5b805181602001fd5b63150b7a0260e01b7bffffffffffffffffffffffffffffffffffffffffffffffffffffffff1916817bffffffffffffffffffffffffffffffffffffffffffffffffffffffff19161491505061303e565b600190505b949350505050565b505050565b6008805490506009600083815260200190815260200160002081905550600881908060018154018082558091505060019003906000526020600020016000909190919091505550565b600060016130a184611577565b6130ab9190614ca6565b9050600060076000848152602001908152602001600020549050818114613190576000600660008673ffffffffffffffffffffffffffffffffffffffff1673ffffffffffffffffffffffffffffffffffffffff168152602001908152602001600020600084815260200190815260200160002054905080600660008773ffffffffffffffffffffffffffffffffffffffff1673ffffffffffffffffffffffffffffffffffffffff168152602001908152602001600020600084815260200190815260200160002081905550816007600083815260200190815260200160002081905550505b6007600084815260200190815260200160002060009055600660008573ffffffffffffffffffffffffffffffffffffffff1673ffffffffffffffffffffffffffffffffffffffff16815260200190815260200160002060008381526020019081526020016000206000905550505050565b600060016008805490506132159190614ca6565b9050600060096000848152602001908152602001600020549050600060088381548110613245576132446142a4565b5b906000526020600020015490508060088381548110613267576132666142a4565b5b9060005260206000200181905550816009600083815260200190815260200160002081905550600960008581526020019081526020016000206000905560088054806132b6576132b5614f4c565b5b6001900381819060005260206000200160009055905550505050565b60006132dd83611577565b905081600660008573ffffffffffffffffffffffffffffffffffffffff1673ffffffffffffffffffffffffffffffffffffffff168152602001908152602001600020600083815260200190815260200160002081905550806007600084815260200190815260200160002081905550505050565b600073ffffffffffffffffffffffffffffffffffffffff168273ffffffffffffffffffffffffffffffffffffffff1614156133c1576040517f08c379a00000000000000000000000000000000000000000000000000000000081526004016133b890614fc7565b60405180910390fd5b6133ca816123e6565b1561340a576040517f08c379a000000000000000000000000000000000000000000000000000000000815260040161340190615033565b60405180910390fd5b61341660008383612d4f565b6001600360008473ffffffffffffffffffffffffffffffffffffffff1673ffffffffffffffffffffffffffffffffffffffff1681526020019081526020016000206000828254613466919061466b565b92505081905550816002600083815260200190815260200160002060006101000a81548173ffffffffffffffffffffffffffffffffffffffff021916908373ffffffffffffffffffffffffffffffffffffffff160217905550808273ffffffffffffffffffffffffffffffffffffffff16600073ffffffffffffffffffffffffffffffffffffffff167fddf252ad1be2c89b69c2b068fc378daa952ba7f163c4a11628f55a4df523b3ef60405160405180910390a45050565b600080823b905060008111915050919050565b82805461353e90613f98565b90600052602060002090601f01602090048101928261356057600085556135a7565b82601f1061357957805160ff19168380011785556135a7565b828001600101855582156135a7579182015b828111156135a657825182559160200191906001019061358b565b5b5090506135b49190613679565b5090565b50805460008255906000526020600020908101906135d69190613679565b50565b828054828255906000526020600020908101928215613668579160200282015b8281111561366757823573ffffffffffffffffffffffffffffffffffffffff168260006101000a81548173ffffffffffffffffffffffffffffffffffffffff021916908373ffffffffffffffffffffffffffffffffffffffff160217905550916020019190600101906135f9565b5b5090506136759190613679565b5090565b5b8082111561369257600081600090555060010161367a565b5090565b6000604051905090565b600080fd5b600080fd5b60007fffffffff0000000000000000000000000000000000000000000000000000000082169050919050565b6136df816136aa565b81146136ea57600080fd5b50565b6000813590506136fc816136d6565b92915050565b600060208284031215613718576137176136a0565b5b6000613726848285016136ed565b91505092915050565b60008115159050919050565b6137448161372f565b82525050565b600060208201905061375f600083018461373b565b92915050565b61376e8161372f565b811461377957600080fd5b50565b60008135905061378b81613765565b92915050565b6000602082840312156137a7576137a66136a0565b5b60006137b58482850161377c565b91505092915050565b600081519050919050565b600082825260208201905092915050565b60005b838110156137f85780820151818401526020810190506137dd565b83811115613807576000848401525b50505050565b6000601f19601f8301169050919050565b6000613829826137be565b61383381856137c9565b93506138438185602086016137da565b61384c8161380d565b840191505092915050565b60006020820190508181036000830152613871818461381e565b905092915050565b6000819050919050565b61388c81613879565b811461389757600080fd5b50565b6000813590506138a981613883565b92915050565b6000602082840312156138c5576138c46136a0565b5b60006138d38482850161389a565b91505092915050565b600073ffffffffffffffffffffffffffffffffffffffff82169050919050565b6000613907826138dc565b9050919050565b613917816138fc565b82525050565b6000602082019050613932600083018461390e565b92915050565b613941816138fc565b811461394c57600080fd5b50565b60008135905061395e81613938565b92915050565b6000806040838503121561397b5761397a6136a0565b5b60006139898582860161394f565b925050602061399a8582860161389a565b9150509250929050565b6139ad81613879565b82525050565b60006020820190506139c860008301846139a4565b92915050565b6000602082840312156139e4576139e36136a0565b5b60006139f28482850161394f565b91505092915050565b600080600060608486031215613a1457613a136136a0565b5b6000613a228682870161394f565b9350506020613a338682870161394f565b9250506040613a448682870161389a565b9150509250925092565b600081519050919050565b600082825260208201905092915050565b6000819050602082019050919050565b613a8381613879565b82525050565b6000613a958383613a7a565b60208301905092915050565b6000602082019050919050565b6000613ab982613a4e565b613ac38185613a59565b9350613ace83613a6a565b8060005b83811015613aff578151613ae68882613a89565b9750613af183613aa1565b925050600181019050613ad2565b5085935050505092915050565b60006020820190508181036000830152613b268184613aae565b905092915050565b600080fd5b600080fd5b7f4e487b7100000000000000000000000000000000000000000000000000000000600052604160045260246000fd5b613b708261380d565b810181811067ffffffffffffffff82111715613b8f57613b8e613b38565b5b80604052505050565b6000613ba2613696565b9050613bae8282613b67565b919050565b600067ffffffffffffffff821115613bce57613bcd613b38565b5b613bd78261380d565b9050602081019050919050565b82818337600083830152505050565b6000613c06613c0184613bb3565b613b98565b905082815260208101848484011115613c2257613c21613b33565b5b613c2d848285613be4565b509392505050565b600082601f830112613c4a57613c49613b2e565b5b8135613c5a848260208601613bf3565b91505092915050565b600060208284031215613c7957613c786136a0565b5b600082013567ffffffffffffffff811115613c9757613c966136a5565b5b613ca384828501613c35565b91505092915050565b60008060408385031215613cc357613cc26136a0565b5b6000613cd18582860161394f565b9250506020613ce28582860161377c565b9150509250929050565b600067ffffffffffffffff821115613d0757613d06613b38565b5b613d108261380d565b9050602081019050919050565b6000613d30613d2b84613cec565b613b98565b905082815260208101848484011115613d4c57613d4b613b33565b5b613d57848285613be4565b509392505050565b600082601f830112613d7457613d73613b2e565b5b8135613d84848260208601613d1d565b91505092915050565b60008060008060808587031215613da757613da66136a0565b5b6000613db58782880161394f565b9450506020613dc68782880161394f565b9350506040613dd78782880161389a565b925050606085013567ffffffffffffffff811115613df857613df76136a5565b5b613e0487828801613d5f565b91505092959194509250565b60008060408385031215613e2757613e266136a0565b5b6000613e358582860161394f565b9250506020613e468582860161394f565b9150509250929050565b600080fd5b600080fd5b60008083601f840112613e7057613e6f613b2e565b5b8235905067ffffffffffffffff811115613e8d57613e8c613e50565b5b602083019150836020820283011115613ea957613ea8613e55565b5b9250929050565b60008060208385031215613ec757613ec66136a0565b5b600083013567ffffffffffffffff811115613ee557613ee46136a5565b5b613ef185828601613e5a565b92509250509250929050565b7f4f776e61626c653a2063616c6c6572206973206e6f7420746865206f776e6572600082015250565b6000613f336020836137c9565b9150613f3e82613efd565b602082019050919050565b60006020820190508181036000830152613f6281613f26565b9050919050565b7f4e487b7100000000000000000000000000000000000000000000000000000000600052602260045260246000fd5b60006002820490506001821680613fb057607f821691505b60208210811415613fc457613fc3613f69565b5b50919050565b7f4552433732313a20617070726f76656420717565727920666f72206e6f6e657860008201527f697374656e7420746f6b656e0000000000000000000000000000000000000000602082015250565b6000614026602c836137c9565b915061403182613fca565b604082019050919050565b6000602082019050818103600083015261405581614019565b9050919050565b7f4552433732313a20617070726f76616c20746f2063757272656e74206f776e6560008201527f7200000000000000000000000000000000000000000000000000000000000000602082015250565b60006140b86021836137c9565b91506140c38261405c565b604082019050919050565b600060208201905081810360008301526140e7816140ab565b9050919050565b7f4552433732313a20617070726f76652063616c6c6572206973206e6f74206f7760008201527f6e6572206e6f7220617070726f76656420666f7220616c6c0000000000000000602082015250565b600061414a6038836137c9565b9150614155826140ee565b604082019050919050565b600060208201905081810360008301526141798161413d565b9050919050565b7f4552433732313a207472616e736665722063616c6c6572206973206e6f74206f60008201527f776e6572206e6f7220617070726f766564000000000000000000000000000000602082015250565b60006141dc6031836137c9565b91506141e782614180565b604082019050919050565b6000602082019050818103600083015261420b816141cf565b9050919050565b7f455243373231456e756d657261626c653a206f776e657220696e646578206f7560008201527f74206f6620626f756e6473000000000000000000000000000000000000000000602082015250565b600061426e602b836137c9565b915061427982614212565b604082019050919050565b6000602082019050818103600083015261429d81614261565b9050919050565b7f4e487b7100000000000000000000000000000000000000000000000000000000600052603260045260246000fd5b7f4e487b7100000000000000000000000000000000000000000000000000000000600052601160045260246000fd5b600061430d82613879565b91507fffffffffffffffffffffffffffffffffffffffffffffffffffffffffffffffff8214156143405761433f6142d3565b5b600182019050919050565b7f455243373231456e756d657261626c653a20676c6f62616c20696e646578206f60008201527f7574206f6620626f756e64730000000000000000000000000000000000000000602082015250565b60006143a7602c836137c9565b91506143b28261434b565b604082019050919050565b600060208201905081810360008301526143d68161439a565b9050919050565b7f4552433732313a206f776e657220717565727920666f72206e6f6e657869737460008201527f656e7420746f6b656e0000000000000000000000000000000000000000000000602082015250565b60006144396029836137c9565b9150614444826143dd565b604082019050919050565b600060208201905081810360008301526144688161442c565b9050919050565b7f4552433732313a2062616c616e636520717565727920666f7220746865207a6560008201527f726f206164647265737300000000000000000000000000000000000000000000602082015250565b60006144cb602a836137c9565b91506144d68261446f565b604082019050919050565b600060208201905081810360008301526144fa816144be565b9050919050565b7f74686520636f6e74726163742069732070617573656400000000000000000000600082015250565b60006145376016836137c9565b915061454282614501565b602082019050919050565b600060208201905081810360008301526145668161452a565b9050919050565b7f6e65656420746f206d696e74206174206c656173742031204e46540000000000600082015250565b60006145a3601b836137c9565b91506145ae8261456d565b602082019050919050565b600060208201905081810360008301526145d281614596565b9050919050565b7f6d6178206d696e7420616d6f756e74207065722073657373696f6e206578636560008201527f6564656400000000000000000000000000000000000000000000000000000000602082015250565b60006146356024836137c9565b9150614640826145d9565b604082019050919050565b6000602082019050818103600083015261466481614628565b9050919050565b600061467682613879565b915061468183613879565b9250827fffffffffffffffffffffffffffffffffffffffffffffffffffffffffffffffff038211156146b6576146b56142d3565b5b828201905092915050565b7f6d6178204e4654206c696d697420657863656564656400000000000000000000600082015250565b60006146f76016836137c9565b9150614702826146c1565b602082019050919050565b60006020820190508181036000830152614726816146ea565b9050919050565b7f75736572206973206e6f742077686974656c6973746564000000000000000000600082015250565b60006147636017836137c9565b915061476e8261472d565b602082019050919050565b6000602082019050818103600083015261479281614756565b9050919050565b7f6d6178204e465420706572206164647265737320657863656564656400000000600082015250565b60006147cf601c836137c9565b91506147da82614799565b602082019050919050565b600060208201905081810360008301526147fe816147c2565b9050919050565b600061481082613879565b915061481b83613879565b9250817fffffffffffffffffffffffffffffffffffffffffffffffffffffffffffffffff0483118215151615614854576148536142d3565b5b828202905092915050565b7f696e73756666696369656e742066756e64730000000000000000000000000000600082015250565b60006148956012836137c9565b91506148a08261485f565b602082019050919050565b600060208201905081810360008301526148c481614888565b9050919050565b7f4552433732314d657461646174613a2055524920717565727920666f72206e6f60008201527f6e6578697374656e7420746f6b656e0000000000000000000000000000000000602082015250565b6000614927602f836137c9565b9150614932826148cb565b604082019050919050565b600060208201905081810360008301526149568161491a565b9050919050565b600081905092915050565b6000614973826137be565b61497d818561495d565b935061498d8185602086016137da565b80840191505092915050565b60008190508160005260206000209050919050565b600081546149bb81613f98565b6149c5818661495d565b945060018216600081146149e057600181146149f157614a24565b60ff19831686528186019350614a24565b6149fa85614999565b60005b83811015614a1c578154818901526001820191506020810190506149fd565b838801955050505b50505092915050565b6000614a398286614968565b9150614a458285614968565b9150614a5182846149ae565b9150819050949350505050565b7f4f776e61626c653a206e6577206f776e657220697320746865207a65726f206160008201527f6464726573730000000000000000000000000000000000000000000000000000602082015250565b6000614aba6026836137c9565b9150614ac582614a5e565b604082019050919050565b60006020820190508181036000830152614ae981614aad565b9050919050565b7f4552433732313a206f70657261746f7220717565727920666f72206e6f6e657860008201527f697374656e7420746f6b656e0000000000000000000000000000000000000000602082015250565b6000614b4c602c836137c9565b9150614b5782614af0565b604082019050919050565b60006020820190508181036000830152614b7b81614b3f565b9050919050565b7f4552433732313a207472616e73666572206f6620746f6b656e2074686174206960008201527f73206e6f74206f776e0000000000000000000000000000000000000000000000602082015250565b6000614bde6029836137c9565b9150614be982614b82565b604082019050919050565b60006020820190508181036000830152614c0d81614bd1565b9050919050565b7f4552433732313a207472616e7366657220746f20746865207a65726f2061646460008201527f7265737300000000000000000000000000000000000000000000000000000000602082015250565b6000614c706024836137c9565b9150614c7b82614c14565b604082019050919050565b60006020820190508181036000830152614c9f81614c63565b9050919050565b6000614cb182613879565b9150614cbc83613879565b925082821015614ccf57614cce6142d3565b5b828203905092915050565b7f4552433732313a20617070726f766520746f2063616c6c657200000000000000600082015250565b6000614d106019836137c9565b9150614d1b82614cda565b602082019050919050565b60006020820190508181036000830152614d3f81614d03565b9050919050565b7f4552433732313a207472616e7366657220746f206e6f6e20455243373231526560008201527f63656976657220696d706c656d656e7465720000000000000000000000000000602082015250565b6000614da26032836137c9565b9150614dad82614d46565b604082019050919050565b60006020820190508181036000830152614dd181614d95565b9050919050565b7f4e487b7100000000000000000000000000000000000000000000000000000000600052601260045260246000fd5b6000614e1282613879565b9150614e1d83613879565b925082614e2d57614e2c614dd8565b5b828204905092915050565b6000614e4382613879565b9150614e4e83613879565b925082614e5e57614e5d614dd8565b5b828206905092915050565b600081519050919050565b600082825260208201905092915050565b6000614e9082614e69565b614e9a8185614e74565b9350614eaa8185602086016137da565b614eb38161380d565b840191505092915050565b6000608082019050614ed3600083018761390e565b614ee0602083018661390e565b614eed60408301856139a4565b8181036060830152614eff8184614e85565b905095945050505050565b600081519050614f19816136d6565b92915050565b600060208284031215614f3557614f346136a0565b5b6000614f4384828501614f0a565b91505092915050565b7f4e487b7100000000000000000000000000000000000000000000000000000000600052603160045260246000fd5b7f4552433732313a206d696e7420746f20746865207a65726f2061646472657373600082015250565b6000614fb16020836137c9565b9150614fbc82614f7b565b602082019050919050565b60006020820190508181036000830152614fe081614fa4565b9050919050565b7f4552433732313a20746f6b656e20616c7265616479206d696e74656400000000600082015250565b600061501d601c836137c9565b915061502882614fe7565b602082019050919050565b6000602082019050818103600083015261504c81615010565b905091905056fea264697066735822122058722d8a1ec98b9190f941dcae7fa1ca321f243a60f6c3e5dd3c97429dd7f05e64736f6c634300080a0033",
  "immutableReferences": {},
  "source": "// SPDX-License-Identifier: GPL-3.0\n\npragma solidity >=0.7.0 <0.9.0;\n\nimport \"@openzeppelin/contracts/token/ERC721/extensions/ERC721Enumerable.sol\";\nimport \"@openzeppelin/contracts/access/Ownable.sol\";\n\ncontract MyNFT is ERC721Enumerable, Ownable {\n    using Strings for uint256;\n\n    string public baseURI;\n    string public baseExtension = \".json\";\n    string public notRevealedUri;\n    uint256 public cost = .04 ether;\n    uint256 public maxSupply = 850;\n    uint256 public maxMintAmount = 20000;\n    uint256 public nftPerAddressLimit = 10000;\n    bool public paused = false;\n    bool public revealed = false;\n    bool public onlyWhitelisted = false;\n    address[] public whitelistedAddresses;\n    mapping(address => uint256) public addressMintedBalance;\n\n    constructor(\n        string memory _name,\n        string memory _symbol,\n        string memory _initBaseURI,\n        string memory _initNotRevealedUri\n    ) ERC721(_name, _symbol) {\n        setBaseURI(_initBaseURI);\n        setNotRevealedURI(_initNotRevealedUri);\n    }\n\n    // internal\n    function _baseURI() internal view virtual override returns (string memory) {\n        return baseURI;\n    }\n\n    // public\n    function mint(uint256 _mintAmount) public payable {\n        require(!paused, \"the contract is paused\");\n        uint256 supply = totalSupply();\n        require(_mintAmount > 0, \"need to mint at least 1 NFT\");\n        require(\n            _mintAmount <= maxMintAmount,\n            \"max mint amount per session exceeded\"\n        );\n        require(supply + _mintAmount <= maxSupply, \"max NFT limit exceeded\");\n\n        if (msg.sender != owner()) {\n            if (onlyWhitelisted == true) {\n                require(isWhitelisted(msg.sender), \"user is not whitelisted\");\n                uint256 ownerMintedCount = addressMintedBalance[msg.sender];\n                require(\n                    ownerMintedCount + _mintAmount <= nftPerAddressLimit,\n                    \"max NFT per address exceeded\"\n                );\n            }\n            require(msg.value >= cost * _mintAmount, \"insufficient funds\");\n        }\n\n        for (uint256 i = 1; i <= _mintAmount; i++) {\n            addressMintedBalance[msg.sender]++;\n            _safeMint(msg.sender, supply + i);\n        }\n    }\n\n    function isWhitelisted(address _user) public view returns (bool) {\n        for (uint256 i = 0; i < whitelistedAddresses.length; i++) {\n            if (whitelistedAddresses[i] == _user) {\n                return true;\n            }\n        }\n        return false;\n    }\n\n    function walletOfOwner(address _owner)\n        public\n        view\n        returns (uint256[] memory)\n    {\n        uint256 ownerTokenCount = balanceOf(_owner);\n        uint256[] memory tokenIds = new uint256[](ownerTokenCount);\n        for (uint256 i; i < ownerTokenCount; i++) {\n            tokenIds[i] = tokenOfOwnerByIndex(_owner, i);\n        }\n        return tokenIds;\n    }\n\n    function tokenURI(uint256 tokenId)\n        public\n        view\n        virtual\n        override\n        returns (string memory)\n    {\n        require(\n            _exists(tokenId),\n            \"ERC721Metadata: URI query for nonexistent token\"\n        );\n\n        if (revealed == false) {\n            return notRevealedUri;\n        }\n\n        string memory currentBaseURI = _baseURI();\n        return\n            bytes(currentBaseURI).length > 0\n                ? string(\n                    abi.encodePacked(\n                        currentBaseURI,\n                        tokenId.toString(),\n                        baseExtension\n                    )\n                )\n                : \"\";\n    }\n\n    //only owner\n    function reveal() public onlyOwner {\n        revealed = true;\n    }\n\n    function setNftPerAddressLimit(uint256 _limit) public onlyOwner {\n        nftPerAddressLimit = _limit;\n    }\n\n    function setCost(uint256 _newCost) public onlyOwner {\n        cost = _newCost;\n    }\n\n    function setmaxMintAmount(uint256 _newmaxMintAmount) public onlyOwner {\n        maxMintAmount = _newmaxMintAmount;\n    }\n\n    function setBaseURI(string memory _newBaseURI) public onlyOwner {\n        baseURI = _newBaseURI;\n    }\n\n    function setBaseExtension(string memory _newBaseExtension)\n        public\n        onlyOwner\n    {\n        baseExtension = _newBaseExtension;\n    }\n\n    function setNotRevealedURI(string memory _notRevealedURI) public onlyOwner {\n        notRevealedUri = _notRevealedURI;\n    }\n\n    function pause(bool _state) public onlyOwner {\n        paused = _state;\n    }\n\n    function setOnlyWhitelisted(bool _state) public onlyOwner {\n        onlyWhitelisted = _state;\n    }\n\n    function setMaxLimit(uint256 _state) public onlyOwner {\n        maxSupply = _state;\n    }\n\n    function whitelistUsers(address[] calldata _users) public onlyOwner {\n        delete whitelistedAddresses;\n        whitelistedAddresses = _users;\n    }\n\n    function withdraw() public payable onlyOwner {\n        payable(owner()).transfer(address(this).balance);\n    }\n}\n",
  "sourcePath": "/Users/jjcatulle/Desktop/nft-token-staking/contracts/MyNFT.sol",
  "compiler": {
    "name": "solc",
    "version": "0.8.10+commit.fc410830.Emscripten.clang"
  },
  "schemaVersion": "3.4.3",
  "updatedAt": "2021-12-29T05:07:20.449Z",
  "networkType": "ethereum",
  "devdoc": {
    "kind": "dev",
    "methods": {
      "approve(address,uint256)": {
        "details": "See {IERC721-approve}."
      },
      "balanceOf(address)": {
        "details": "See {IERC721-balanceOf}."
      },
      "getApproved(uint256)": {
        "details": "See {IERC721-getApproved}."
      },
      "isApprovedForAll(address,address)": {
        "details": "See {IERC721-isApprovedForAll}."
      },
      "name()": {
        "details": "See {IERC721Metadata-name}."
      },
      "owner()": {
        "details": "Returns the address of the current owner."
      },
      "ownerOf(uint256)": {
        "details": "See {IERC721-ownerOf}."
      },
      "renounceOwnership()": {
        "details": "Leaves the contract without owner. It will not be possible to call `onlyOwner` functions anymore. Can only be called by the current owner. NOTE: Renouncing ownership will leave the contract without an owner, thereby removing any functionality that is only available to the owner."
      },
      "safeTransferFrom(address,address,uint256)": {
        "details": "See {IERC721-safeTransferFrom}."
      },
      "safeTransferFrom(address,address,uint256,bytes)": {
        "details": "See {IERC721-safeTransferFrom}."
      },
      "setApprovalForAll(address,bool)": {
        "details": "See {IERC721-setApprovalForAll}."
      },
      "supportsInterface(bytes4)": {
        "details": "See {IERC165-supportsInterface}."
      },
      "symbol()": {
        "details": "See {IERC721Metadata-symbol}."
      },
      "tokenByIndex(uint256)": {
        "details": "See {IERC721Enumerable-tokenByIndex}."
      },
      "tokenOfOwnerByIndex(address,uint256)": {
        "details": "See {IERC721Enumerable-tokenOfOwnerByIndex}."
      },
      "tokenURI(uint256)": {
        "details": "See {IERC721Metadata-tokenURI}."
      },
      "totalSupply()": {
        "details": "See {IERC721Enumerable-totalSupply}."
      },
      "transferFrom(address,address,uint256)": {
        "details": "See {IERC721-transferFrom}."
      },
      "transferOwnership(address)": {
        "details": "Transfers ownership of the contract to a new account (`newOwner`). Can only be called by the current owner."
      }
    },
    "version": 1
  },
  "userdoc": {
    "kind": "user",
    "methods": {},
    "version": 1
  }
}