{
  "contractName": "MyToken",
  "abi": [
    {
      "inputs": [],
      "stateMutability": "nonpayable",
      "type": "constructor"
    },
    {
      "anonymous": false,
      "inputs": [
        {
          "indexed": true,
          "internalType": "address",
          "name": "owner",
          "type": "address"
        },
        {
          "indexed": true,
          "internalType": "address",
          "name": "spender",
          "type": "address"
        },
        {
          "indexed": false,
          "internalType": "uint256",
          "name": "value",
          "type": "uint256"
        }
      ],
      "name": "Approval",
      "type": "event"
    },
    {
      "anonymous": false,
      "inputs": [
        {
          "indexed": true,
          "internalType": "address",
          "name": "previousOwner",
          "type": "address"
        },
        {
          "indexed": true,
          "internalType": "address",
          "name": "newOwner",
          "type": "address"
        }
      ],
      "name": "OwnershipTransferred",
      "type": "event"
    },
    {
      "anonymous": false,
      "inputs": [
        {
          "indexed": false,
          "internalType": "address",
          "name": "account",
          "type": "address"
        }
      ],
      "name": "Paused",
      "type": "event"
    },
    {
      "anonymous": false,
      "inputs": [
        {
          "indexed": true,
          "internalType": "address",
          "name": "from",
          "type": "address"
        },
        {
          "indexed": true,
          "internalType": "address",
          "name": "to",
          "type": "address"
        },
        {
          "indexed": false,
          "internalType": "uint256",
          "name": "value",
          "type": "uint256"
        }
      ],
      "name": "Transfer",
      "type": "event"
    },
    {
      "anonymous": false,
      "inputs": [
        {
          "indexed": false,
          "internalType": "address",
          "name": "account",
          "type": "address"
        }
      ],
      "name": "Unpaused",
      "type": "event"
    },
    {
      "inputs": [],
      "name": "MAX_SUPPLY",
      "outputs": [
        {
          "internalType": "uint256",
          "name": "",
          "type": "uint256"
        }
      ],
      "stateMutability": "view",
      "type": "function",
      "constant": true
    },
    {
      "inputs": [],
      "name": "admin",
      "outputs": [
        {
          "internalType": "address",
          "name": "",
          "type": "address"
        }
      ],
      "stateMutability": "view",
      "type": "function",
      "constant": true
    },
    {
      "inputs": [
        {
          "internalType": "address",
          "name": "owner",
          "type": "address"
        },
        {
          "internalType": "address",
          "name": "spender",
          "type": "address"
        }
      ],
      "name": "allowance",
      "outputs": [
        {
          "internalType": "uint256",
          "name": "",
          "type": "uint256"
        }
      ],
      "stateMutability": "view",
      "type": "function",
      "constant": true
    },
    {
      "inputs": [
        {
          "internalType": "address",
          "name": "spender",
          "type": "address"
        },
        {
          "internalType": "uint256",
          "name": "amount",
          "type": "uint256"
        }
      ],
      "name": "approve",
      "outputs": [
        {
          "internalType": "bool",
          "name": "",
          "type": "bool"
        }
      ],
      "stateMutability": "nonpayable",
      "type": "function"
    },
    {
      "inputs": [
        {
          "internalType": "address",
          "name": "account",
          "type": "address"
        }
      ],
      "name": "balanceOf",
      "outputs": [
        {
          "internalType": "uint256",
          "name": "",
          "type": "uint256"
        }
      ],
      "stateMutability": "view",
      "type": "function",
      "constant": true
    },
    {
      "inputs": [],
      "name": "decimals",
      "outputs": [
        {
          "internalType": "uint8",
          "name": "",
          "type": "uint8"
        }
      ],
      "stateMutability": "view",
      "type": "function",
      "constant": true
    },
    {
      "inputs": [
        {
          "internalType": "address",
          "name": "spender",
          "type": "address"
        },
        {
          "internalType": "uint256",
          "name": "subtractedValue",
          "type": "uint256"
        }
      ],
      "name": "decreaseAllowance",
      "outputs": [
        {
          "internalType": "bool",
          "name": "",
          "type": "bool"
        }
      ],
      "stateMutability": "nonpayable",
      "type": "function"
    },
    {
      "inputs": [
        {
          "internalType": "address",
          "name": "spender",
          "type": "address"
        },
        {
          "internalType": "uint256",
          "name": "addedValue",
          "type": "uint256"
        }
      ],
      "name": "increaseAllowance",
      "outputs": [
        {
          "internalType": "bool",
          "name": "",
          "type": "bool"
        }
      ],
      "stateMutability": "nonpayable",
      "type": "function"
    },
    {
      "inputs": [],
      "name": "name",
      "outputs": [
        {
          "internalType": "string",
          "name": "",
          "type": "string"
        }
      ],
      "stateMutability": "view",
      "type": "function",
      "constant": true
    },
    {
      "inputs": [],
      "name": "owner",
      "outputs": [
        {
          "internalType": "address",
          "name": "",
          "type": "address"
        }
      ],
      "stateMutability": "view",
      "type": "function",
      "constant": true
    },
    {
      "inputs": [],
      "name": "paused",
      "outputs": [
        {
          "internalType": "bool",
          "name": "",
          "type": "bool"
        }
      ],
      "stateMutability": "view",
      "type": "function",
      "constant": true
    },
    {
      "inputs": [],
      "name": "renounceOwnership",
      "outputs": [],
      "stateMutability": "nonpayable",
      "type": "function"
    },
    {
      "inputs": [],
      "name": "symbol",
      "outputs": [
        {
          "internalType": "string",
          "name": "",
          "type": "string"
        }
      ],
      "stateMutability": "view",
      "type": "function",
      "constant": true
    },
    {
      "inputs": [],
      "name": "totalSupply",
      "outputs": [
        {
          "internalType": "uint256",
          "name": "",
          "type": "uint256"
        }
      ],
      "stateMutability": "view",
      "type": "function",
      "constant": true
    },
    {
      "inputs": [
        {
          "internalType": "address",
          "name": "recipient",
          "type": "address"
        },
        {
          "internalType": "uint256",
          "name": "amount",
          "type": "uint256"
        }
      ],
      "name": "transfer",
      "outputs": [
        {
          "internalType": "bool",
          "name": "",
          "type": "bool"
        }
      ],
      "stateMutability": "nonpayable",
      "type": "function"
    },
    {
      "inputs": [
        {
          "internalType": "address",
          "name": "sender",
          "type": "address"
        },
        {
          "internalType": "address",
          "name": "recipient",
          "type": "address"
        },
        {
          "internalType": "uint256",
          "name": "amount",
          "type": "uint256"
        }
      ],
      "name": "transferFrom",
      "outputs": [
        {
          "internalType": "bool",
          "name": "",
          "type": "bool"
        }
      ],
      "stateMutability": "nonpayable",
      "type": "function"
    },
    {
      "inputs": [
        {
          "internalType": "address",
          "name": "newOwner",
          "type": "address"
        }
      ],
      "name": "transferOwnership",
      "outputs": [],
      "stateMutability": "nonpayable",
      "type": "function"
    },
    {
      "inputs": [
        {
          "internalType": "address",
          "name": "to",
          "type": "address"
        },
        {
          "internalType": "uint256",
          "name": "amount",
          "type": "uint256"
        }
      ],
      "name": "mint",
      "outputs": [],
      "stateMutability": "nonpayable",
      "type": "function"
    },
    {
      "inputs": [
        {
          "internalType": "address",
          "name": "to",
          "type": "address"
        },
        {
          "internalType": "uint256",
          "name": "amount",
          "type": "uint256"
        }
      ],
      "name": "mintToUser",
      "outputs": [],
      "stateMutability": "nonpayable",
      "type": "function"
    },
    {
      "inputs": [
        {
          "internalType": "address",
          "name": "_admin",
          "type": "address"
        }
      ],
      "name": "setAdmin",
      "outputs": [],
      "stateMutability": "nonpayable",
      "type": "function"
    },
    {
      "inputs": [],
      "name": "pause",
      "outputs": [],
      "stateMutability": "nonpayable",
      "type": "function"
    },
    {
      "inputs": [],
      "name": "unpause",
      "outputs": [],
      "stateMutability": "nonpayable",
      "type": "function"
    },
    {
      "inputs": [
        {
          "internalType": "uint256",
          "name": "_state",
          "type": "uint256"
        }
      ],
      "name": "setMaxSupply",
      "outputs": [],
      "stateMutability": "nonpayable",
      "type": "function"
    }
  ],
  "bytecode": "0x6080604052620000146200016460201b60201c565b600a6200002291906200068f565b64174876e800620000349190620006e0565b6006553480156200004457600080fd5b506040518060400160405280600a81526020017f4963657920546f6b656e000000000000000000000000000000000000000000008152506040518060400160405280600381526020017f49434500000000000000000000000000000000000000000000000000000000008152508160039080519060200190620000c992919062000445565b508060049080519060200190620000e292919062000445565b50505062000105620000f96200016d60201b60201c565b6200017560201b60201c565b6000600560146101000a81548160ff0219169083151502179055506200015e33620001356200016460201b60201c565b600a6200014391906200068f565b6103e8620001529190620006e0565b6200023b60201b60201c565b62000926565b60006012905090565b600033905090565b6000600560009054906101000a900473ffffffffffffffffffffffffffffffffffffffff16905081600560006101000a81548173ffffffffffffffffffffffffffffffffffffffff021916908373ffffffffffffffffffffffffffffffffffffffff1602179055508173ffffffffffffffffffffffffffffffffffffffff168173ffffffffffffffffffffffffffffffffffffffff167f8be0079c531659141344cd1fd0a4f28419497f9722a3daafe3b4186f6b6457e060405160405180910390a35050565b600073ffffffffffffffffffffffffffffffffffffffff168273ffffffffffffffffffffffffffffffffffffffff161415620002ae576040517f08c379a0000000000000000000000000000000000000000000000000000000008152600401620002a590620007a2565b60405180910390fd5b620002c260008383620003b460201b60201c565b8060026000828254620002d69190620007c4565b92505081905550806000808473ffffffffffffffffffffffffffffffffffffffff1673ffffffffffffffffffffffffffffffffffffffff16815260200190815260200160002060008282546200032d9190620007c4565b925050819055508173ffffffffffffffffffffffffffffffffffffffff16600073ffffffffffffffffffffffffffffffffffffffff167fddf252ad1be2c89b69c2b068fc378daa952ba7f163c4a11628f55a4df523b3ef8360405162000394919062000832565b60405180910390a3620003b0600083836200042460201b60201c565b5050565b620003c46200042960201b60201c565b1562000407576040517f08c379a0000000000000000000000000000000000000000000000000000000008152600401620003fe906200089f565b60405180910390fd5b6200041f8383836200044060201b62000f0a1760201c565b505050565b505050565b6000600560149054906101000a900460ff16905090565b505050565b8280546200045390620008f0565b90600052602060002090601f016020900481019282620004775760008555620004c3565b82601f106200049257805160ff1916838001178555620004c3565b82800160010185558215620004c3579182015b82811115620004c2578251825591602001919060010190620004a5565b5b509050620004d29190620004d6565b5090565b5b80821115620004f1576000816000905550600101620004d7565b5090565b7f4e487b7100000000000000000000000000000000000000000000000000000000600052601160045260246000fd5b60008160011c9050919050565b6000808291508390505b600185111562000583578086048111156200055b576200055a620004f5565b5b60018516156200056b5780820291505b80810290506200057b8562000524565b94506200053b565b94509492505050565b6000826200059e576001905062000671565b81620005ae576000905062000671565b8160018114620005c75760028114620005d25762000608565b600191505062000671565b60ff841115620005e757620005e6620004f5565b5b8360020a915084821115620006015762000600620004f5565b5b5062000671565b5060208310610133831016604e8410600b8410161715620006425782820a9050838111156200063c576200063b620004f5565b5b62000671565b62000651848484600162000531565b925090508184048111156200066b576200066a620004f5565b5b81810290505b9392505050565b6000819050919050565b600060ff82169050919050565b60006200069c8262000678565b9150620006a98362000682565b9250620006d87fffffffffffffffffffffffffffffffffffffffffffffffffffffffffffffffff84846200058c565b905092915050565b6000620006ed8262000678565b9150620006fa8362000678565b9250817fffffffffffffffffffffffffffffffffffffffffffffffffffffffffffffffff0483118215151615620007365762000735620004f5565b5b828202905092915050565b600082825260208201905092915050565b7f45524332303a206d696e7420746f20746865207a65726f206164647265737300600082015250565b60006200078a601f8362000741565b9150620007978262000752565b602082019050919050565b60006020820190508181036000830152620007bd816200077b565b9050919050565b6000620007d18262000678565b9150620007de8362000678565b9250827fffffffffffffffffffffffffffffffffffffffffffffffffffffffffffffffff03821115620008165762000815620004f5565b5b828201905092915050565b6200082c8162000678565b82525050565b600060208201905062000849600083018462000821565b92915050565b7f5061757361626c653a2070617573656400000000000000000000000000000000600082015250565b60006200088760108362000741565b915062000894826200084f565b602082019050919050565b60006020820190508181036000830152620008ba8162000878565b9050919050565b7f4e487b7100000000000000000000000000000000000000000000000000000000600052602260045260246000fd5b600060028204905060018216806200090957607f821691505b6020821081141562000920576200091f620008c1565b5b50919050565b6122a180620009366000396000f3fe608060405234801561001057600080fd5b506004361061014d5760003560e01c8063704b6c02116100c357806395d89b411161007c57806395d89b4114610354578063a457c2d714610372578063a9059cbb146103a2578063dd62ed3e146103d2578063f2fde38b14610402578063f851a4401461041e5761014d565b8063704b6c02146102ba57806370a08231146102d6578063715018a6146103065780638456cb59146103105780638da5cb5b1461031a5780639533a384146103385761014d565b806332cb6b0c1161011557806332cb6b0c1461020c578063395093511461022a5780633f4ba83a1461025a57806340c10f19146102645780635c975abb146102805780636f8b44b01461029e5761014d565b806306fdde0314610152578063095ea7b31461017057806318160ddd146101a057806323b872dd146101be578063313ce567146101ee575b600080fd5b61015a61043c565b60405161016791906117c4565b60405180910390f35b61018a6004803603810190610185919061187f565b6104ce565b60405161019791906118da565b60405180910390f35b6101a86104ec565b6040516101b59190611904565b60405180910390f35b6101d860048036038101906101d3919061191f565b6104f6565b6040516101e591906118da565b60405180910390f35b6101f66105ee565b604051610203919061198e565b60405180910390f35b6102146105f7565b6040516102219190611904565b60405180910390f35b610244600480360381019061023f919061187f565b6105fd565b60405161025191906118da565b60405180910390f35b6102626106a9565b005b61027e6004803603810190610279919061187f565b61072f565b005b610288610818565b60405161029591906118da565b60405180910390f35b6102b860048036038101906102b391906119a9565b61082f565b005b6102d460048036038101906102cf91906119d6565b6108b5565b005b6102f060048036038101906102eb91906119d6565b610975565b6040516102fd9190611904565b60405180910390f35b61030e6109bd565b005b610318610a45565b005b610322610acb565b60405161032f9190611a12565b60405180910390f35b610352600480360381019061034d919061187f565b610af5565b005b61035c610bca565b60405161036991906117c4565b60405180910390f35b61038c6004803603810190610387919061187f565b610c5c565b60405161039991906118da565b60405180910390f35b6103bc60048036038101906103b7919061187f565b610d47565b6040516103c991906118da565b60405180910390f35b6103ec60048036038101906103e79190611a2d565b610d65565b6040516103f99190611904565b60405180910390f35b61041c600480360381019061041791906119d6565b610dec565b005b610426610ee4565b6040516104339190611a12565b60405180910390f35b60606003805461044b90611a9c565b80601f016020809104026020016040519081016040528092919081815260200182805461047790611a9c565b80156104c45780601f10610499576101008083540402835291602001916104c4565b820191906000526020600020905b8154815290600101906020018083116104a757829003601f168201915b5050505050905090565b60006104e26104db610f0f565b8484610f17565b6001905092915050565b6000600254905090565b60006105038484846110e2565b6000600160008673ffffffffffffffffffffffffffffffffffffffff1673ffffffffffffffffffffffffffffffffffffffff168152602001908152602001600020600061054e610f0f565b73ffffffffffffffffffffffffffffffffffffffff1673ffffffffffffffffffffffffffffffffffffffff168152602001908152602001600020549050828110156105ce576040517f08c379a00000000000000000000000000000000000000000000000000000000081526004016105c590611b40565b60405180910390fd5b6105e2856105da610f0f565b858403610f17565b60019150509392505050565b60006012905090565b60065481565b600061069f61060a610f0f565b848460016000610618610f0f565b73ffffffffffffffffffffffffffffffffffffffff1673ffffffffffffffffffffffffffffffffffffffff16815260200190815260200160002060008873ffffffffffffffffffffffffffffffffffffffff1673ffffffffffffffffffffffffffffffffffffffff1681526020019081526020016000205461069a9190611b8f565b610f17565b6001905092915050565b6106b1610f0f565b73ffffffffffffffffffffffffffffffffffffffff166106cf610acb565b73ffffffffffffffffffffffffffffffffffffffff1614610725576040517f08c379a000000000000000000000000000000000000000000000000000000000815260040161071c90611c31565b60405180910390fd5b61072d611363565b565b60065461073a6104ec565b1061077a576040517f08c379a000000000000000000000000000000000000000000000000000000000815260040161077190611c9d565b60405180910390fd5b3373ffffffffffffffffffffffffffffffffffffffff16600760009054906101000a900473ffffffffffffffffffffffffffffffffffffffff1673ffffffffffffffffffffffffffffffffffffffff161461080a576040517f08c379a000000000000000000000000000000000000000000000000000000000815260040161080190611d09565b60405180910390fd5b6108148282611405565b5050565b6000600560149054906101000a900460ff16905090565b610837610f0f565b73ffffffffffffffffffffffffffffffffffffffff16610855610acb565b73ffffffffffffffffffffffffffffffffffffffff16146108ab576040517f08c379a00000000000000000000000000000000000000000000000000000000081526004016108a290611c31565b60405180910390fd5b8060068190555050565b6108bd610f0f565b73ffffffffffffffffffffffffffffffffffffffff166108db610acb565b73ffffffffffffffffffffffffffffffffffffffff1614610931576040517f08c379a000000000000000000000000000000000000000000000000000000000815260040161092890611c31565b60405180910390fd5b80600760006101000a81548173ffffffffffffffffffffffffffffffffffffffff021916908373ffffffffffffffffffffffffffffffffffffffff16021790555050565b60008060008373ffffffffffffffffffffffffffffffffffffffff1673ffffffffffffffffffffffffffffffffffffffff168152602001908152602001600020549050919050565b6109c5610f0f565b73ffffffffffffffffffffffffffffffffffffffff166109e3610acb565b73ffffffffffffffffffffffffffffffffffffffff1614610a39576040517f08c379a0000000000000000000000000000000000000000000000000000000008152600401610a3090611c31565b60405180910390fd5b610a436000611565565b565b610a4d610f0f565b73ffffffffffffffffffffffffffffffffffffffff16610a6b610acb565b73ffffffffffffffffffffffffffffffffffffffff1614610ac1576040517f08c379a0000000000000000000000000000000000000000000000000000000008152600401610ab890611c31565b60405180910390fd5b610ac961162b565b565b6000600560009054906101000a900473ffffffffffffffffffffffffffffffffffffffff16905090565b610afd610f0f565b73ffffffffffffffffffffffffffffffffffffffff16610b1b610acb565b73ffffffffffffffffffffffffffffffffffffffff1614610b71576040517f08c379a0000000000000000000000000000000000000000000000000000000008152600401610b6890611c31565b60405180910390fd5b600654610b7c6104ec565b10610bbc576040517f08c379a0000000000000000000000000000000000000000000000000000000008152600401610bb390611c9d565b60405180910390fd5b610bc68282611405565b5050565b606060048054610bd990611a9c565b80601f0160208091040260200160405190810160405280929190818152602001828054610c0590611a9c565b8015610c525780601f10610c2757610100808354040283529160200191610c52565b820191906000526020600020905b815481529060010190602001808311610c3557829003601f168201915b5050505050905090565b60008060016000610c6b610f0f565b73ffffffffffffffffffffffffffffffffffffffff1673ffffffffffffffffffffffffffffffffffffffff16815260200190815260200160002060008573ffffffffffffffffffffffffffffffffffffffff1673ffffffffffffffffffffffffffffffffffffffff16815260200190815260200160002054905082811015610d28576040517f08c379a0000000000000000000000000000000000000000000000000000000008152600401610d1f90611d9b565b60405180910390fd5b610d3c610d33610f0f565b85858403610f17565b600191505092915050565b6000610d5b610d54610f0f565b84846110e2565b6001905092915050565b6000600160008473ffffffffffffffffffffffffffffffffffffffff1673ffffffffffffffffffffffffffffffffffffffff16815260200190815260200160002060008373ffffffffffffffffffffffffffffffffffffffff1673ffffffffffffffffffffffffffffffffffffffff16815260200190815260200160002054905092915050565b610df4610f0f565b73ffffffffffffffffffffffffffffffffffffffff16610e12610acb565b73ffffffffffffffffffffffffffffffffffffffff1614610e68576040517f08c379a0000000000000000000000000000000000000000000000000000000008152600401610e5f90611c31565b60405180910390fd5b600073ffffffffffffffffffffffffffffffffffffffff168173ffffffffffffffffffffffffffffffffffffffff161415610ed8576040517f08c379a0000000000000000000000000000000000000000000000000000000008152600401610ecf90611e2d565b60405180910390fd5b610ee181611565565b50565b600760009054906101000a900473ffffffffffffffffffffffffffffffffffffffff1681565b505050565b600033905090565b600073ffffffffffffffffffffffffffffffffffffffff168373ffffffffffffffffffffffffffffffffffffffff161415610f87576040517f08c379a0000000000000000000000000000000000000000000000000000000008152600401610f7e90611ebf565b60405180910390fd5b600073ffffffffffffffffffffffffffffffffffffffff168273ffffffffffffffffffffffffffffffffffffffff161415610ff7576040517f08c379a0000000000000000000000000000000000000000000000000000000008152600401610fee90611f51565b60405180910390fd5b80600160008573ffffffffffffffffffffffffffffffffffffffff1673ffffffffffffffffffffffffffffffffffffffff16815260200190815260200160002060008473ffffffffffffffffffffffffffffffffffffffff1673ffffffffffffffffffffffffffffffffffffffff168152602001908152602001600020819055508173ffffffffffffffffffffffffffffffffffffffff168373ffffffffffffffffffffffffffffffffffffffff167f8c5be1e5ebec7d5bd14f71427d1e84f3dd0314c0f7b2291e5b200ac8c7c3b925836040516110d59190611904565b60405180910390a3505050565b600073ffffffffffffffffffffffffffffffffffffffff168373ffffffffffffffffffffffffffffffffffffffff161415611152576040517f08c379a000000000000000000000000000000000000000000000000000000000815260040161114990611fe3565b60405180910390fd5b600073ffffffffffffffffffffffffffffffffffffffff168273ffffffffffffffffffffffffffffffffffffffff1614156111c2576040517f08c379a00000000000000000000000000000000000000000000000000000000081526004016111b990612075565b60405180910390fd5b6111cd8383836116ce565b60008060008573ffffffffffffffffffffffffffffffffffffffff1673ffffffffffffffffffffffffffffffffffffffff16815260200190815260200160002054905081811015611253576040517f08c379a000000000000000000000000000000000000000000000000000000000815260040161124a90612107565b60405180910390fd5b8181036000808673ffffffffffffffffffffffffffffffffffffffff1673ffffffffffffffffffffffffffffffffffffffff16815260200190815260200160002081905550816000808573ffffffffffffffffffffffffffffffffffffffff1673ffffffffffffffffffffffffffffffffffffffff16815260200190815260200160002060008282546112e69190611b8f565b925050819055508273ffffffffffffffffffffffffffffffffffffffff168473ffffffffffffffffffffffffffffffffffffffff167fddf252ad1be2c89b69c2b068fc378daa952ba7f163c4a11628f55a4df523b3ef8460405161134a9190611904565b60405180910390a361135d848484611726565b50505050565b61136b610818565b6113aa576040517f08c379a00000000000000000000000000000000000000000000000000000000081526004016113a190612173565b60405180910390fd5b6000600560146101000a81548160ff0219169083151502179055507f5db9ee0a495bf2e6ff9c91a7834c1ba4fdd244a5e8aa4e537bd38aeae4b073aa6113ee610f0f565b6040516113fb9190611a12565b60405180910390a1565b600073ffffffffffffffffffffffffffffffffffffffff168273ffffffffffffffffffffffffffffffffffffffff161415611475576040517f08c379a000000000000000000000000000000000000000000000000000000000815260040161146c906121df565b60405180910390fd5b611481600083836116ce565b80600260008282546114939190611b8f565b92505081905550806000808473ffffffffffffffffffffffffffffffffffffffff1673ffffffffffffffffffffffffffffffffffffffff16815260200190815260200160002060008282546114e89190611b8f565b925050819055508173ffffffffffffffffffffffffffffffffffffffff16600073ffffffffffffffffffffffffffffffffffffffff167fddf252ad1be2c89b69c2b068fc378daa952ba7f163c4a11628f55a4df523b3ef8360405161154d9190611904565b60405180910390a361156160008383611726565b5050565b6000600560009054906101000a900473ffffffffffffffffffffffffffffffffffffffff16905081600560006101000a81548173ffffffffffffffffffffffffffffffffffffffff021916908373ffffffffffffffffffffffffffffffffffffffff1602179055508173ffffffffffffffffffffffffffffffffffffffff168173ffffffffffffffffffffffffffffffffffffffff167f8be0079c531659141344cd1fd0a4f28419497f9722a3daafe3b4186f6b6457e060405160405180910390a35050565b611633610818565b15611673576040517f08c379a000000000000000000000000000000000000000000000000000000000815260040161166a9061224b565b60405180910390fd5b6001600560146101000a81548160ff0219169083151502179055507f62e78cea01bee320cd4e420270b5ea74000d11b0c9f74754ebdbfc544b05a2586116b7610f0f565b6040516116c49190611a12565b60405180910390a1565b6116d6610818565b15611716576040517f08c379a000000000000000000000000000000000000000000000000000000000815260040161170d9061224b565b60405180910390fd5b611721838383610f0a565b505050565b505050565b600081519050919050565b600082825260208201905092915050565b60005b8381101561176557808201518184015260208101905061174a565b83811115611774576000848401525b50505050565b6000601f19601f8301169050919050565b60006117968261172b565b6117a08185611736565b93506117b0818560208601611747565b6117b98161177a565b840191505092915050565b600060208201905081810360008301526117de818461178b565b905092915050565b600080fd5b600073ffffffffffffffffffffffffffffffffffffffff82169050919050565b6000611816826117eb565b9050919050565b6118268161180b565b811461183157600080fd5b50565b6000813590506118438161181d565b92915050565b6000819050919050565b61185c81611849565b811461186757600080fd5b50565b60008135905061187981611853565b92915050565b60008060408385031215611896576118956117e6565b5b60006118a485828601611834565b92505060206118b58582860161186a565b9150509250929050565b60008115159050919050565b6118d4816118bf565b82525050565b60006020820190506118ef60008301846118cb565b92915050565b6118fe81611849565b82525050565b600060208201905061191960008301846118f5565b92915050565b600080600060608486031215611938576119376117e6565b5b600061194686828701611834565b935050602061195786828701611834565b92505060406119688682870161186a565b9150509250925092565b600060ff82169050919050565b61198881611972565b82525050565b60006020820190506119a3600083018461197f565b92915050565b6000602082840312156119bf576119be6117e6565b5b60006119cd8482850161186a565b91505092915050565b6000602082840312156119ec576119eb6117e6565b5b60006119fa84828501611834565b91505092915050565b611a0c8161180b565b82525050565b6000602082019050611a276000830184611a03565b92915050565b60008060408385031215611a4457611a436117e6565b5b6000611a5285828601611834565b9250506020611a6385828601611834565b9150509250929050565b7f4e487b7100000000000000000000000000000000000000000000000000000000600052602260045260246000fd5b60006002820490506001821680611ab457607f821691505b60208210811415611ac857611ac7611a6d565b5b50919050565b7f45524332303a207472616e7366657220616d6f756e742065786365656473206160008201527f6c6c6f77616e6365000000000000000000000000000000000000000000000000602082015250565b6000611b2a602883611736565b9150611b3582611ace565b604082019050919050565b60006020820190508181036000830152611b5981611b1d565b9050919050565b7f4e487b7100000000000000000000000000000000000000000000000000000000600052601160045260246000fd5b6000611b9a82611849565b9150611ba583611849565b9250827fffffffffffffffffffffffffffffffffffffffffffffffffffffffffffffffff03821115611bda57611bd9611b60565b5b828201905092915050565b7f4f776e61626c653a2063616c6c6572206973206e6f7420746865206f776e6572600082015250565b6000611c1b602083611736565b9150611c2682611be5565b602082019050919050565b60006020820190508181036000830152611c4a81611c0e565b9050919050565b7f616c6c20746f6b656e732068617665206265656e206d696e7465640000000000600082015250565b6000611c87601b83611736565b9150611c9282611c51565b602082019050919050565b60006020820190508181036000830152611cb681611c7a565b9050919050565b7f6e6f74207468652061646d696e00000000000000000000000000000000000000600082015250565b6000611cf3600d83611736565b9150611cfe82611cbd565b602082019050919050565b60006020820190508181036000830152611d2281611ce6565b9050919050565b7f45524332303a2064656372656173656420616c6c6f77616e63652062656c6f7760008201527f207a65726f000000000000000000000000000000000000000000000000000000602082015250565b6000611d85602583611736565b9150611d9082611d29565b604082019050919050565b60006020820190508181036000830152611db481611d78565b9050919050565b7f4f776e61626c653a206e6577206f776e657220697320746865207a65726f206160008201527f6464726573730000000000000000000000000000000000000000000000000000602082015250565b6000611e17602683611736565b9150611e2282611dbb565b604082019050919050565b60006020820190508181036000830152611e4681611e0a565b9050919050565b7f45524332303a20617070726f76652066726f6d20746865207a65726f2061646460008201527f7265737300000000000000000000000000000000000000000000000000000000602082015250565b6000611ea9602483611736565b9150611eb482611e4d565b604082019050919050565b60006020820190508181036000830152611ed881611e9c565b9050919050565b7f45524332303a20617070726f766520746f20746865207a65726f20616464726560008201527f7373000000000000000000000000000000000000000000000000000000000000602082015250565b6000611f3b602283611736565b9150611f4682611edf565b604082019050919050565b60006020820190508181036000830152611f6a81611f2e565b9050919050565b7f45524332303a207472616e736665722066726f6d20746865207a65726f20616460008201527f6472657373000000000000000000000000000000000000000000000000000000602082015250565b6000611fcd602583611736565b9150611fd882611f71565b604082019050919050565b60006020820190508181036000830152611ffc81611fc0565b9050919050565b7f45524332303a207472616e7366657220746f20746865207a65726f206164647260008201527f6573730000000000000000000000000000000000000000000000000000000000602082015250565b600061205f602383611736565b915061206a82612003565b604082019050919050565b6000602082019050818103600083015261208e81612052565b9050919050565b7f45524332303a207472616e7366657220616d6f756e742065786365656473206260008201527f616c616e63650000000000000000000000000000000000000000000000000000602082015250565b60006120f1602683611736565b91506120fc82612095565b604082019050919050565b60006020820190508181036000830152612120816120e4565b9050919050565b7f5061757361626c653a206e6f7420706175736564000000000000000000000000600082015250565b600061215d601483611736565b915061216882612127565b602082019050919050565b6000602082019050818103600083015261218c81612150565b9050919050565b7f45524332303a206d696e7420746f20746865207a65726f206164647265737300600082015250565b60006121c9601f83611736565b91506121d482612193565b602082019050919050565b600060208201905081810360008301526121f8816121bc565b9050919050565b7f5061757361626c653a2070617573656400000000000000000000000000000000600082015250565b6000612235601083611736565b9150612240826121ff565b602082019050919050565b6000602082019050818103600083015261226481612228565b905091905056fea26469706673582212208de4ee11dcffafe51a9b0b893c01ad451783f78890de7fd9d808773632dc868c64736f6c634300080a0033",
  "immutableReferences": {},
  "source": "// SPDX-License-Identifier: MIT\npragma solidity ^0.8.2;\n\nimport \"@openzeppelin/contracts/token/ERC20/ERC20.sol\";\nimport \"@openzeppelin/contracts/access/Ownable.sol\";\nimport \"@openzeppelin/contracts/security/Pausable.sol\";\n\ncontract MyToken is ERC20, Ownable, Pausable {\n    uint256 public MAX_SUPPLY = 100000000000 * 10**decimals();\n    address public admin;\n\n    constructor() ERC20(\"Icey Token\", \"ICE\") {\n        _mint(msg.sender, 1000 * 10**decimals());\n    }\n\n    function mint(address to, uint256 amount) public {\n        require(totalSupply() < MAX_SUPPLY, \"all tokens have been minted\");\n        require(admin == msg.sender, \"not the admin\");\n        _mint(to, amount);\n    }\n\n    function mintToUser(address to, uint256 amount) public onlyOwner {\n        require(totalSupply() < MAX_SUPPLY, \"all tokens have been minted\");\n        _mint(to, amount);\n    }\n\n    function setAdmin(address _admin) public onlyOwner {\n        admin = _admin;\n    }\n\n    function pause() public onlyOwner {\n        _pause();\n    }\n\n    function unpause() public onlyOwner {\n        _unpause();\n    }\n\n    function setMaxSupply(uint256 _state) public onlyOwner {\n        MAX_SUPPLY = _state;\n    }\n\n    function _beforeTokenTransfer(\n        address from,\n        address to,\n        uint256 amount\n    ) internal override whenNotPaused {\n        super._beforeTokenTransfer(from, to, amount);\n    }\n}\n",
  "sourcePath": "/Users/jjcatulle/Desktop/nft-token-staking/contracts/Mytoken.sol",
  "compiler": {
    "name": "solc",
    "version": "0.8.10+commit.fc410830.Emscripten.clang"
  },
  "schemaVersion": "3.4.3",
  "updatedAt": "2022-01-10T02:32:11.741Z",
  "networkType": "ethereum",
  "devdoc": {
    "kind": "dev",
    "methods": {
      "allowance(address,address)": {
        "details": "See {IERC20-allowance}."
      },
      "approve(address,uint256)": {
        "details": "See {IERC20-approve}. Requirements: - `spender` cannot be the zero address."
      },
      "balanceOf(address)": {
        "details": "See {IERC20-balanceOf}."
      },
      "decimals()": {
        "details": "Returns the number of decimals used to get its user representation. For example, if `decimals` equals `2`, a balance of `505` tokens should be displayed to a user as `5.05` (`505 / 10 ** 2`). Tokens usually opt for a value of 18, imitating the relationship between Ether and Wei. This is the value {ERC20} uses, unless this function is overridden; NOTE: This information is only used for _display_ purposes: it in no way affects any of the arithmetic of the contract, including {IERC20-balanceOf} and {IERC20-transfer}."
      },
      "decreaseAllowance(address,uint256)": {
        "details": "Atomically decreases the allowance granted to `spender` by the caller. This is an alternative to {approve} that can be used as a mitigation for problems described in {IERC20-approve}. Emits an {Approval} event indicating the updated allowance. Requirements: - `spender` cannot be the zero address. - `spender` must have allowance for the caller of at least `subtractedValue`."
      },
      "increaseAllowance(address,uint256)": {
        "details": "Atomically increases the allowance granted to `spender` by the caller. This is an alternative to {approve} that can be used as a mitigation for problems described in {IERC20-approve}. Emits an {Approval} event indicating the updated allowance. Requirements: - `spender` cannot be the zero address."
      },
      "name()": {
        "details": "Returns the name of the token."
      },
      "owner()": {
        "details": "Returns the address of the current owner."
      },
      "paused()": {
        "details": "Returns true if the contract is paused, and false otherwise."
      },
      "renounceOwnership()": {
        "details": "Leaves the contract without owner. It will not be possible to call `onlyOwner` functions anymore. Can only be called by the current owner. NOTE: Renouncing ownership will leave the contract without an owner, thereby removing any functionality that is only available to the owner."
      },
      "symbol()": {
        "details": "Returns the symbol of the token, usually a shorter version of the name."
      },
      "totalSupply()": {
        "details": "See {IERC20-totalSupply}."
      },
      "transfer(address,uint256)": {
        "details": "See {IERC20-transfer}. Requirements: - `recipient` cannot be the zero address. - the caller must have a balance of at least `amount`."
      },
      "transferFrom(address,address,uint256)": {
        "details": "See {IERC20-transferFrom}. Emits an {Approval} event indicating the updated allowance. This is not required by the EIP. See the note at the beginning of {ERC20}. Requirements: - `sender` and `recipient` cannot be the zero address. - `sender` must have a balance of at least `amount`. - the caller must have allowance for ``sender``'s tokens of at least `amount`."
      },
      "transferOwnership(address)": {
        "details": "Transfers ownership of the contract to a new account (`newOwner`). Can only be called by the current owner."
      }
    },
    "version": 1
  },
  "userdoc": {
    "kind": "user",
    "methods": {},
    "version": 1
  }
}