{
  "contractName": "NFTFarm",
  "abi": [
    {
      "inputs": [
        {
          "internalType": "contract MyToken",
          "name": "_myToken",
          "type": "address"
        },
        {
          "internalType": "contract MyNFT",
          "name": "_myNFT",
          "type": "address"
        }
      ],
      "stateMutability": "nonpayable",
      "type": "constructor"
    },
    {
      "anonymous": false,
      "inputs": [
        {
          "indexed": false,
          "internalType": "address",
          "name": "staker",
          "type": "address"
        },
        {
          "indexed": false,
          "internalType": "uint256",
          "name": "id",
          "type": "uint256"
        }
      ],
      "name": "NewStaker",
      "type": "event"
    },
    {
      "anonymous": false,
      "inputs": [
        {
          "indexed": false,
          "internalType": "address",
          "name": "staker",
          "type": "address"
        },
        {
          "indexed": false,
          "internalType": "uint256",
          "name": "id",
          "type": "uint256"
        }
      ],
      "name": "UnStaked",
      "type": "event"
    },
    {
      "anonymous": false,
      "inputs": [
        {
          "indexed": false,
          "internalType": "address",
          "name": "user",
          "type": "address"
        },
        {
          "indexed": false,
          "internalType": "uint256",
          "name": "total",
          "type": "uint256"
        }
      ],
      "name": "rewardsClaimed",
      "type": "event"
    },
    {
      "inputs": [],
      "name": "TOKEN_PER_DAY",
      "outputs": [
        {
          "internalType": "uint256",
          "name": "",
          "type": "uint256"
        }
      ],
      "stateMutability": "view",
      "type": "function",
      "constant": true
    },
    {
      "inputs": [
        {
          "internalType": "address",
          "name": "",
          "type": "address"
        }
      ],
      "name": "hasStaked",
      "outputs": [
        {
          "internalType": "bool",
          "name": "",
          "type": "bool"
        }
      ],
      "stateMutability": "view",
      "type": "function",
      "constant": true
    },
    {
      "inputs": [
        {
          "internalType": "address",
          "name": "",
          "type": "address"
        }
      ],
      "name": "isStaking",
      "outputs": [
        {
          "internalType": "bool",
          "name": "",
          "type": "bool"
        }
      ],
      "stateMutability": "view",
      "type": "function",
      "constant": true
    },
    {
      "inputs": [
        {
          "internalType": "address",
          "name": "",
          "type": "address"
        }
      ],
      "name": "lastRewarded",
      "outputs": [
        {
          "internalType": "uint256",
          "name": "",
          "type": "uint256"
        }
      ],
      "stateMutability": "view",
      "type": "function",
      "constant": true
    },
    {
      "inputs": [],
      "name": "myNFT",
      "outputs": [
        {
          "internalType": "contract MyNFT",
          "name": "",
          "type": "address"
        }
      ],
      "stateMutability": "view",
      "type": "function",
      "constant": true
    },
    {
      "inputs": [],
      "name": "myToken",
      "outputs": [
        {
          "internalType": "contract MyToken",
          "name": "",
          "type": "address"
        }
      ],
      "stateMutability": "view",
      "type": "function",
      "constant": true
    },
    {
      "inputs": [],
      "name": "name",
      "outputs": [
        {
          "internalType": "string",
          "name": "",
          "type": "string"
        }
      ],
      "stateMutability": "view",
      "type": "function",
      "constant": true
    },
    {
      "inputs": [],
      "name": "owner",
      "outputs": [
        {
          "internalType": "address",
          "name": "",
          "type": "address"
        }
      ],
      "stateMutability": "view",
      "type": "function",
      "constant": true
    },
    {
      "inputs": [
        {
          "internalType": "address",
          "name": "",
          "type": "address"
        },
        {
          "internalType": "uint256",
          "name": "",
          "type": "uint256"
        }
      ],
      "name": "stakingRecord",
      "outputs": [
        {
          "internalType": "bool",
          "name": "",
          "type": "bool"
        }
      ],
      "stateMutability": "view",
      "type": "function",
      "constant": true
    },
    {
      "inputs": [
        {
          "internalType": "address",
          "name": "",
          "type": "address"
        }
      ],
      "name": "totalStaked",
      "outputs": [
        {
          "internalType": "uint256",
          "name": "",
          "type": "uint256"
        }
      ],
      "stateMutability": "view",
      "type": "function",
      "constant": true
    },
    {
      "inputs": [
        {
          "internalType": "uint256[]",
          "name": "_id",
          "type": "uint256[]"
        }
      ],
      "name": "stake",
      "outputs": [],
      "stateMutability": "nonpayable",
      "type": "function"
    },
    {
      "inputs": [
        {
          "internalType": "uint256",
          "name": "_id",
          "type": "uint256"
        }
      ],
      "name": "unstake",
      "outputs": [],
      "stateMutability": "nonpayable",
      "type": "function"
    },
    {
      "inputs": [],
      "name": "claimReWards",
      "outputs": [],
      "stateMutability": "nonpayable",
      "type": "function"
    },
    {
      "inputs": [
        {
          "internalType": "uint256",
          "name": "_state",
          "type": "uint256"
        }
      ],
      "name": "setTokenPerDay",
      "outputs": [],
      "stateMutability": "nonpayable",
      "type": "function"
    }
  ],
  "bytecode": "0x60806040526040518060400160405280601681526020017f496365792050616e64617a20546f6b656e204661726d00000000000000000000815250600090805190602001906200005192919062000155565b50600a6001553480156200006457600080fd5b50604051620019cb380380620019cb83398181016040528101906200008a9190620002c8565b81600360006101000a81548173ffffffffffffffffffffffffffffffffffffffff021916908373ffffffffffffffffffffffffffffffffffffffff16021790555080600460006101000a81548173ffffffffffffffffffffffffffffffffffffffff021916908373ffffffffffffffffffffffffffffffffffffffff16021790555033600260006101000a81548173ffffffffffffffffffffffffffffffffffffffff021916908373ffffffffffffffffffffffffffffffffffffffff160217905550505062000374565b82805462000163906200033e565b90600052602060002090601f016020900481019282620001875760008555620001d3565b82601f10620001a257805160ff1916838001178555620001d3565b82800160010185558215620001d3579182015b82811115620001d2578251825591602001919060010190620001b5565b5b509050620001e29190620001e6565b5090565b5b8082111562000201576000816000905550600101620001e7565b5090565b600080fd5b600073ffffffffffffffffffffffffffffffffffffffff82169050919050565b600062000237826200020a565b9050919050565b60006200024b826200022a565b9050919050565b6200025d816200023e565b81146200026957600080fd5b50565b6000815190506200027d8162000252565b92915050565b600062000290826200022a565b9050919050565b620002a28162000283565b8114620002ae57600080fd5b50565b600081519050620002c28162000297565b92915050565b60008060408385031215620002e257620002e162000205565b5b6000620002f2858286016200026c565b92505060206200030585828601620002b1565b9150509250929050565b7f4e487b7100000000000000000000000000000000000000000000000000000000600052602260045260246000fd5b600060028204905060018216806200035757607f821691505b602082108114156200036e576200036d6200030f565b5b50919050565b61164780620003846000396000f3fe608060405234801561001057600080fd5b50600436106100ea5760003560e01c80639159c40f1161008c578063b8fb704f11610066578063b8fb704f1461024b578063b8fcf93714610255578063c93c8f3414610273578063f934d6fa146102a3576100ea565b80639159c40f146101e15780639bfa694a146101ff5780639bfd8d611461021b576100ea565b80632e17de78116100c85780632e17de78146101475780636d185989146101635780636f49712b146101935780638da5cb5b146101c3576100ea565b806306fdde03146100ef57806309a31d501461010d5780630fbf0a931461012b575b600080fd5b6100f76102d3565b6040516101049190610ed5565b60405180910390f35b610115610361565b6040516101229190610f76565b60405180910390f35b61014560048036038101906101409190611000565b610387565b005b610161600480360381019061015c9190611083565b610676565b005b61017d600480360381019061017891906110ee565b610a06565b60405161018a9190611149565b60405180910390f35b6101ad60048036038101906101a89190611164565b610a35565b6040516101ba9190611149565b60405180910390f35b6101cb610a55565b6040516101d891906111a0565b60405180910390f35b6101e9610a7b565b6040516101f691906111ca565b60405180910390f35b61021960048036038101906102149190611083565b610a81565b005b61023560048036038101906102309190611164565b610ae5565b60405161024291906111ca565b60405180910390f35b610253610afd565b005b61025d610dde565b60405161026a9190611206565b60405180910390f35b61028d60048036038101906102889190611164565b610e04565b60405161029a9190611149565b60405180910390f35b6102bd60048036038101906102b89190611164565b610e24565b6040516102ca91906111ca565b60405180910390f35b600080546102e090611250565b80601f016020809104026020016040519081016040528092919081815260200182805461030c90611250565b80156103595780601f1061032e57610100808354040283529160200191610359565b820191906000526020600020905b81548152906001019060200180831161033c57829003601f168201915b505050505081565b600460009054906101000a900473ffffffffffffffffffffffffffffffffffffffff1681565b60005b8282905081101561067157600460009054906101000a900473ffffffffffffffffffffffffffffffffffffffff1673ffffffffffffffffffffffffffffffffffffffff166323b872dd33308686868181106103e8576103e7611282565b5b905060200201356040518463ffffffff1660e01b815260040161040d939291906112b1565b600060405180830381600087803b15801561042757600080fd5b505af115801561043b573d6000803e3d6000fd5b5050505042600860003373ffffffffffffffffffffffffffffffffffffffff1673ffffffffffffffffffffffffffffffffffffffff168152602001908152602001600020819055506001600960003373ffffffffffffffffffffffffffffffffffffffff1673ffffffffffffffffffffffffffffffffffffffff16815260200190815260200160002060008585858181106104d9576104d8611282565b5b90506020020135815260200190815260200160002060006101000a81548160ff0219169083151502179055506001600760003373ffffffffffffffffffffffffffffffffffffffff1673ffffffffffffffffffffffffffffffffffffffff16815260200190815260200160002060008282546105559190611317565b925050819055506001600660003373ffffffffffffffffffffffffffffffffffffffff1673ffffffffffffffffffffffffffffffffffffffff16815260200190815260200160002060006101000a81548160ff0219169083151502179055506001600560003373ffffffffffffffffffffffffffffffffffffffff1673ffffffffffffffffffffffffffffffffffffffff16815260200190815260200160002060006101000a81548160ff0219169083151502179055507fa96c2cce65119a2170d1711a6e82f18f2006448828483ba7545e5954765436473384848481811061064157610640611282565b5b9050602002013560405161065692919061136d565b60405180910390a1808061066990611396565b91505061038a565b505050565b6000600760003373ffffffffffffffffffffffffffffffffffffffff1673ffffffffffffffffffffffffffffffffffffffff16815260200190815260200160002054116106f8576040517f08c379a00000000000000000000000000000000000000000000000000000000081526004016106ef9061142b565b60405180910390fd5b600960003373ffffffffffffffffffffffffffffffffffffffff1673ffffffffffffffffffffffffffffffffffffffff168152602001908152602001600020600082815260200190815260200160002060009054906101000a900460ff16610795576040517f08c379a000000000000000000000000000000000000000000000000000000000815260040161078c90611497565b60405180910390fd5b42600860003373ffffffffffffffffffffffffffffffffffffffff1673ffffffffffffffffffffffffffffffffffffffff16815260200190815260200160002081905550600460009054906101000a900473ffffffffffffffffffffffffffffffffffffffff1673ffffffffffffffffffffffffffffffffffffffff166323b872dd3033846040518463ffffffff1660e01b8152600401610838939291906112b1565b600060405180830381600087803b15801561085257600080fd5b505af1158015610866573d6000803e3d6000fd5b505050506000600960003373ffffffffffffffffffffffffffffffffffffffff1673ffffffffffffffffffffffffffffffffffffffff168152602001908152602001600020600083815260200190815260200160002060006101000a81548160ff0219169083151502179055506001600760003373ffffffffffffffffffffffffffffffffffffffff1673ffffffffffffffffffffffffffffffffffffffff168152602001908152602001600020600082825461092391906114b7565b925050819055506000600760003373ffffffffffffffffffffffffffffffffffffffff1673ffffffffffffffffffffffffffffffffffffffff16815260200190815260200160002054116109ca576000600660003373ffffffffffffffffffffffffffffffffffffffff1673ffffffffffffffffffffffffffffffffffffffff16815260200190815260200160002060006101000a81548160ff0219169083151502179055505b7f79d3df6837cc49ff0e09fd3258e6e45594e0703445bb06825e9d75156eaee8f033826040516109fb92919061136d565b60405180910390a150565b60096020528160005260406000206020528060005260406000206000915091509054906101000a900460ff1681565b60066020528060005260406000206000915054906101000a900460ff1681565b600260009054906101000a900473ffffffffffffffffffffffffffffffffffffffff1681565b60015481565b600260009054906101000a900473ffffffffffffffffffffffffffffffffffffffff1673ffffffffffffffffffffffffffffffffffffffff163373ffffffffffffffffffffffffffffffffffffffff1614610adb57600080fd5b8060018190555050565b60076020528060005260406000206000915090505481565b6000600760003373ffffffffffffffffffffffffffffffffffffffff1673ffffffffffffffffffffffffffffffffffffffff1681526020019081526020016000205411610b7f576040517f08c379a0000000000000000000000000000000000000000000000000000000008152600401610b769061142b565b60405180910390fd5b600062015180600860003373ffffffffffffffffffffffffffffffffffffffff1673ffffffffffffffffffffffffffffffffffffffff16815260200190815260200160002054610bcf9190611317565b905042811115610c14576040517f08c379a0000000000000000000000000000000000000000000000000000000008152600401610c0b90611537565b60405180910390fd5b6000600860003373ffffffffffffffffffffffffffffffffffffffff1673ffffffffffffffffffffffffffffffffffffffff1681526020019081526020016000205442610c6191906114b7565b90506000600154600760003373ffffffffffffffffffffffffffffffffffffffff1673ffffffffffffffffffffffffffffffffffffffff168152602001908152602001600020546201518084610cb79190611586565b610cc191906115b7565b610ccb91906115b7565b905042600860003373ffffffffffffffffffffffffffffffffffffffff1673ffffffffffffffffffffffffffffffffffffffff16815260200190815260200160002081905550600360009054906101000a900473ffffffffffffffffffffffffffffffffffffffff1673ffffffffffffffffffffffffffffffffffffffff166340c10f1933836040518363ffffffff1660e01b8152600401610d6e92919061136d565b600060405180830381600087803b158015610d8857600080fd5b505af1158015610d9c573d6000803e3d6000fd5b505050507f91d3cfdd28f012f5f26efe5e3c6a156e39cc7caa6288f227e934d04828e483ce3382604051610dd192919061136d565b60405180910390a1505050565b600360009054906101000a900473ffffffffffffffffffffffffffffffffffffffff1681565b60056020528060005260406000206000915054906101000a900460ff1681565b60086020528060005260406000206000915090505481565b600081519050919050565b600082825260208201905092915050565b60005b83811015610e76578082015181840152602081019050610e5b565b83811115610e85576000848401525b50505050565b6000601f19601f8301169050919050565b6000610ea782610e3c565b610eb18185610e47565b9350610ec1818560208601610e58565b610eca81610e8b565b840191505092915050565b60006020820190508181036000830152610eef8184610e9c565b905092915050565b600073ffffffffffffffffffffffffffffffffffffffff82169050919050565b6000819050919050565b6000610f3c610f37610f3284610ef7565b610f17565b610ef7565b9050919050565b6000610f4e82610f21565b9050919050565b6000610f6082610f43565b9050919050565b610f7081610f55565b82525050565b6000602082019050610f8b6000830184610f67565b92915050565b600080fd5b600080fd5b600080fd5b600080fd5b600080fd5b60008083601f840112610fc057610fbf610f9b565b5b8235905067ffffffffffffffff811115610fdd57610fdc610fa0565b5b602083019150836020820283011115610ff957610ff8610fa5565b5b9250929050565b6000806020838503121561101757611016610f91565b5b600083013567ffffffffffffffff81111561103557611034610f96565b5b61104185828601610faa565b92509250509250929050565b6000819050919050565b6110608161104d565b811461106b57600080fd5b50565b60008135905061107d81611057565b92915050565b60006020828403121561109957611098610f91565b5b60006110a78482850161106e565b91505092915050565b60006110bb82610ef7565b9050919050565b6110cb816110b0565b81146110d657600080fd5b50565b6000813590506110e8816110c2565b92915050565b6000806040838503121561110557611104610f91565b5b6000611113858286016110d9565b92505060206111248582860161106e565b9150509250929050565b60008115159050919050565b6111438161112e565b82525050565b600060208201905061115e600083018461113a565b92915050565b60006020828403121561117a57611179610f91565b5b6000611188848285016110d9565b91505092915050565b61119a816110b0565b82525050565b60006020820190506111b56000830184611191565b92915050565b6111c48161104d565b82525050565b60006020820190506111df60008301846111bb565b92915050565b60006111f082610f43565b9050919050565b611200816111e5565b82525050565b600060208201905061121b60008301846111f7565b92915050565b7f4e487b7100000000000000000000000000000000000000000000000000000000600052602260045260246000fd5b6000600282049050600182168061126857607f821691505b6020821081141561127c5761127b611221565b5b50919050565b7f4e487b7100000000000000000000000000000000000000000000000000000000600052603260045260246000fd5b60006060820190506112c66000830186611191565b6112d36020830185611191565b6112e060408301846111bb565b949350505050565b7f4e487b7100000000000000000000000000000000000000000000000000000000600052601160045260246000fd5b60006113228261104d565b915061132d8361104d565b9250827fffffffffffffffffffffffffffffffffffffffffffffffffffffffffffffffff03821115611362576113616112e8565b5b828201905092915050565b60006040820190506113826000830185611191565b61138f60208301846111bb565b9392505050565b60006113a18261104d565b91507fffffffffffffffffffffffffffffffffffffffffffffffffffffffffffffffff8214156113d4576113d36112e8565b5b600182019050919050565b7f4e6f742061207374616b65720000000000000000000000000000000000000000600082015250565b6000611415600c83610e47565b9150611420826113df565b602082019050919050565b6000602082019050818103600083015261144481611408565b9050919050565b7f4e6f74207374616b696e67207370656369666963206974656d00000000000000600082015250565b6000611481601983610e47565b915061148c8261144b565b602082019050919050565b600060208201905081810360008301526114b081611474565b9050919050565b60006114c28261104d565b91506114cd8361104d565b9250828210156114e0576114df6112e8565b5b828203905092915050565b7f5265776172647320617661696c61626c65206166746572203234687273000000600082015250565b6000611521601d83610e47565b915061152c826114eb565b602082019050919050565b6000602082019050818103600083015261155081611514565b9050919050565b7f4e487b7100000000000000000000000000000000000000000000000000000000600052601260045260246000fd5b60006115918261104d565b915061159c8361104d565b9250826115ac576115ab611557565b5b828204905092915050565b60006115c28261104d565b91506115cd8361104d565b9250817fffffffffffffffffffffffffffffffffffffffffffffffffffffffffffffffff0483118215151615611606576116056112e8565b5b82820290509291505056fea26469706673582212202f0594fddff1a1c579dc7fa26f4c74d9763245f7fe434ca49f88a583779d0c4d64736f6c634300080a0033",
  "immutableReferences": {},
  "source": "// SPDX-License-Identifier: MIT\npragma solidity ^0.8.2;\n\nimport \"./Mytoken.sol\";\nimport \"./MyNFT.sol\";\n\ncontract NFTFarm {\n    string public name = \"Icey Pandaz Token Farm\";\n    uint256 public TOKEN_PER_DAY = 10;\n\n    address public owner;\n    MyToken public myToken;\n    MyNFT public myNFT;\n\n    mapping(address => bool) public hasStaked;\n    mapping(address => bool) public isStaking;\n    mapping(address => uint256) public totalStaked;\n    mapping(address => uint256) public lastRewarded;\n    mapping(address => mapping(uint256 => bool)) public stakingRecord;\n\n    event NewStaker(address staker, uint256 id);\n    event UnStaked(address staker, uint256 id);\n    event rewardsClaimed(address user, uint256 total);\n\n    modifier onlyOwner() {\n        require(msg.sender == owner);\n        _;\n    }\n\n    constructor(MyToken _myToken, MyNFT _myNFT) {\n        myToken = _myToken;\n        myNFT = _myNFT;\n        owner = msg.sender;\n    }\n\n    function stake(uint256[] calldata _id) public {\n        for (uint256 index = 0; index < _id.length; index++) {\n            myNFT.transferFrom(msg.sender, address(this), _id[index]);\n            //reset rewarded time\n            lastRewarded[msg.sender] = block.timestamp;\n            // Add user to stakers map\n            stakingRecord[msg.sender][_id[index]] = true;\n            //update balance\n            totalStaked[msg.sender] += 1;\n            // Update staking status\n            isStaking[msg.sender] = true;\n            hasStaked[msg.sender] = true;\n            emit NewStaker(msg.sender, _id[index]);\n        }\n    }\n\n    function unstake(uint256 _id) public {\n        require(totalStaked[msg.sender] > 0, \"Not a staker\");\n        require(stakingRecord[msg.sender][_id], \"Not staking specific item\");\n        lastRewarded[msg.sender] = block.timestamp;\n        myNFT.transferFrom(address(this), msg.sender, _id);\n        stakingRecord[msg.sender][_id] = false;\n        totalStaked[msg.sender] -= 1;\n        if (totalStaked[msg.sender] <= 0) {\n            isStaking[msg.sender] = false;\n        }\n        emit UnStaked(msg.sender, _id);\n    }\n\n    function claimReWards() public {\n        require(totalStaked[msg.sender] > 0, \"Not a staker\");\n        uint256 available = lastRewarded[msg.sender] + 1 days;\n        require(available <= block.timestamp, \"Rewards available after 24hrs\");\n        uint256 diff = block.timestamp - lastRewarded[msg.sender];\n        uint256 totalRewards = (diff / 1 days) *\n            totalStaked[msg.sender] *\n            TOKEN_PER_DAY;\n        lastRewarded[msg.sender] = block.timestamp;\n        myToken.mint(msg.sender, totalRewards);\n        emit rewardsClaimed(msg.sender, totalRewards);\n    }\n\n    function setTokenPerDay(uint256 _state) public onlyOwner {\n        TOKEN_PER_DAY = _state;\n    }\n}\n",
  "sourcePath": "/Users/jjcatulle/Desktop/nft-token-staking/contracts/NFTFarm.sol",
  "compiler": {
    "name": "solc",
    "version": "0.8.10+commit.fc410830.Emscripten.clang"
  },
  "schemaVersion": "3.4.3",
  "updatedAt": "2022-01-13T19:14:53.221Z",
  "networkType": "ethereum",
  "devdoc": {
    "kind": "dev",
    "methods": {},
    "version": 1
  },
  "userdoc": {
    "kind": "user",
    "methods": {},
    "version": 1
  }
}